:020000040800F2
:1000000090080020E1AD0008B9AD0008BBAD0008C4
:10001000BDAD0008BFAD0008C1AD00080000000084
:10002000000000000000000000000000C3AD000858
:10003000C5AD000800000000C7AD000865A40008B9
:10004000FFFFFFFFFFFFFFFFFFFFFFFFFFFFFFFFC0
:10005000FFFFFFFFFFFFFFFFFFFFFFFFFFFFFFFFB0
:10006000FFFFFFFFFFFFFFFFFFFFFFFFFFFFFFFFA0
:10007000FFFFFFFFFFFFFFFFFFFFFFFFFFFFFFFF90
:10008000FFFFFFFFFFFFFFFFFFFFFFFFFFFFFFFF80
:10009000FDFFFEFFFFFFFFFFFFFFFFFFFFFFFFFF73
:1000A000FEFFFEFFFFFFFFFFFFFFFFFFFFFFFFFF62
:1000B000FFFFFFFFFFFFFFFFFFFFFFFFDFFFFFFF70
:1000C000FFFFFFFFFFFFFFFFFFFFFFFFFFFFFFFF40
:1000D000FFFFFFFFFFFFFFFFFFFFFFFFFFFFFFFF30
:1000E000FFFFFFFFFFFFFFFFFFFFFFFFFFFFFFFF20
:1000F000FFFFFFFFFFFFFFFFFFFFFFFFFFFFFFFF10
:10010000FFFFFFFFFFFFFFFFFFFFFFFFFFFFFFFFFF
:10011000FFFFFFFFFFFFFFFFFFFFFFFFFFFFFFFFEF
:10012000FFFFFFFFFFFFFFFFFFFFFFFFFFFFFFFFDF
:10013000FFFFFFFFFFFFFFFFFFFFFFFFFFFFFFFFCF
:10014000FFFFFFFFFFFFFFFFDFFFFFFFFFFFFFFFDF
:10015000FFFFFFFFFFFFDEFFFFFFFFFFDFFFFFFFF0
:10016000FFFFFFFFFFFFFFFFFFFFFFFFFFFFFFFF9F
:10017000FEFFFEFFFEFFFFFFFFFFFFFFFFFFFFFF92
:10018000FFFFFFFFFFFFFFFFFFFFFFFFFFFFFFFF7F
:10019000FFFFFFFFFFFFFFFFFFFFFFFFFFFFFFFF6F
:1001A000FFFFFFFFFFFFFFFFFFFFFFFFFFFFFFFF5F
:1001B000FFFFFFFFFFFFFFFFFFFFFFFFFFFFFFFF4F
:1001C000FFFFFFFFFFFFFFFFFFFFFFFFFFFFFFFF3F
:1001D000FFFFFFFFFFFFFFFFFFFFFFFFFFFFFFFF2F
:1001E000FFFFFFFFFFFFFFFFFFFFFFFFFFFFFFFF1F
:1001F000FFFFFFFFFFFFFFFFFFFFFFFFFFFFFFFF0F
:10020000FFFFFFFFFFFFFFFFFFFFFFFFFFFFFFFFFE
:10021000FFFFFFFFFFFFFFFFFFFFFFFFFFFFFFFFEE
:10022000FFFFFFFFFFFFFFFFFFFFFFFFFFFFFFFFDE
:10023000FFFFFFFFFFFFFFFFFFFFFFFFFFFFFFFFCE
:10024000FFFFFFFFFFFFFFFFFFFFFFFFFFFFFFFFBE
:10025000FFFFFFFFFFFFFFFFFFFFFFFFFFFFFFFFAE
:10026000FFFFFFFFFFFFFFFFFFFFFFFFFFFFFFFF9E
:10027000FFFFFFFFFFFFFFFFFFFFFFFFFFFFFFFF8E
:10028000FFFFFFFFFFFFFFFFFFFFFFFFFFFFFFFF7E
:10029000FFFFFFFFFFFFFFFFFFFFFFFFFFFFFFFF6E
:1002A000FFFFFFFFFFFFFFFFFFFFFFFFFFFFFFFF5E
:1002B000FFFFFFFFFFFFFFFFFFFFFFFFFFFFFFFF4E
:1002C000FFFFFFFFFFFFFFFFFFFFFFFFFFFFFFFF3E
:1002D000FFFFFFFFFFFFFFFFFFFFFFFFFFFFFFFF2E
:1002E000FFFFFFFFFFFFFFFFFFFFFFFFFFFFFFFF1E
:1002F000FFFFDFFFFFFFFFFFFFFFFFFFFFFFDFFF4E
:10030000DFFFFFFFFFFFFFFFFFFFFFFFFFFFFFFF1D
:10031000DFF7FFFFFFFFFFFFFFFFFFFFFFFFFFFF15
:10032000FFFFFFFFFFFFFFFFFFFFFFFFFFFFFFFFDD
:10033000FFFFFFFFFFFFFFFFFFFFFFFFFFFFFFFFCD
:10034000FFFFFFFFFFFFFFFFFFFFFFFFFFFFFFFFBD
:10035000FFFFFFFFFFFFFFFFFFFFFFFFFFFFFFFFAD
:10036000FFFFFFFFFFFFFFFFFFFFFFFFFFFFFFFF9D
:10037000FFFFFFFFFFFFFFFFFFFFFFFFFFFFFFFF8D
:10038000FFFFFFFFFFFFFFFFFFFFFFFFFFFFFFFF7D
:10039000FFFFFFFFFFFFFFFFFFFFFFFFFFFFFFFF6D
:1003A000FFFFFFFFDFFFDFFFFFF7FFF7FFF7FFFFB5
:1003B000FFF7FFFFFFFFFFFFFFFFFFFFFEFFFEFF57
:1003C000FEFFFEFFFEFFFFFFFFFFFFFFFFFFFFFF40
:1003D000FFFFFFFFFFFFFFFFFFFFFFFFFFFFFFFF2D
:1003E000FFFFFFFFFFFFFFFFFFFFFFFFFFFFFFFF1D
:1003F000FFFFFFFFFFFFFFFFFFFFFFFFFFFFFFFF0D
:10040000FFFFFFFFFFFFFFFFFFFFFFFFFFFFFFFFFC
:10041000FFFFFFFFFFFFFFFFFFFFFFFFFFFFFFFFEC
:10042000FFFFFFFFFFFFFFFFFFFFFFFFFFFFFFFFDC
:10043000FFFFFFFFFFFFFFFFFFFFFFFFFFFFFFFFCC
:10044000FFFFFFFFFFFFFFFFFFFFFFFFFFFFFFFFBC
:10045000FFFFFFFFFFFFFFFFFFFFFFFFFFFFFFFFAC
:10046000FFFFFFFFFFFFFFFFFFFFFFFFFFFFFFF7A4
:10047000FFFFFFFFFFFFFFFFFFFFDFFFFFFFDFFFCC
:10048000DFFFFFFFFFFFFFFFFFFFFFFFFFFFFFFF9C
:10049000FFFFFFFFFFFFFFFFFFFFDFFFFFFFFFFF8C
:1004A000FFFFFFFFFFFFFFFFFFFFFFFFFFFFFFFF5C
:1004B000FFFFFFFFFFFFFFFFFFFFFFFFFFFFFFFF4C
:1004C000FFFFFFFFFFFFFFFFFFFFFFFFFFFFFFFF3C
:1004D000FFFFFFFFFFFFFFFFFFFFFFFFFFFFFFFF2C
:1004E000FFFFFFFFFFFFFFFFFFFFFFFFFFFFFFFF1C
:1004F000FFFFFFFFFFFFFFFFFFFFFFFFFFFFFFFF0C
:10050000FFFFFFFFFFFFFFFFFFFFFFFFFFFFFFFFFB
:10051000FFFFFFFFFFFFFFFFFFFFFFFFFFFFFFFFEB
:10052000FFFFFFFFFFFFFFFFFFFFFFFFFFFFFFFFDB
:10053000BEF7FFFF3BEFBDFF9DFF5DF7BEFFFEFF78
:10054000DBFFFAFF79FF78FFB9FFDAFFBBFFBDFFE2
:10055000DFFF9FFF5CF75CF73BEF7DF7FFFFFFFFDF
:10056000DEFFFFFFFFFFFFFFFFFFFFFFFFFFFFFFBC
:10057000FFFFFFFFFFFFFFFFFFFFFFFFFFFFFFFF8B
:10058000FFFFFFFFFFFFFFFFFFFFFFFFFFFFFFFF7B
:10059000FFFFFFFFFFFFFFFFFFFFFFFFFFFFFFFF6B
:1005A000FFFFFFFFFFFFFFFFFFFFFFFFFFFFFFFF5B
:1005B000FFFFFFFFFFFFFFFFFFFFFFFFFFFFFFFF4B
:1005C000FFFFFFFFFFFFFFFFFFFFFFFFFFFFFFFF3B
:1005D000FFFFFFFFFFFFFFFFFFFFFFFFFFFFFFFF2B
:1005E000FFFFFFFFFFFFFFFFFFFFFFFFFFFFFFFF1B
:1005F000FFFFBEF79AD6B6B596B511AD11B5ED931E
:10060000C9722A7B0B9CCAB48AC5C0E5A0DD81D51E
:1006100023C563ACC5932683866A274A074AC64129
:10062000CA62B19CD6C5B9DEDEFFFFFFFFFFFFFF48
:10063000FFFFFFFFFFFFFFFFFFFFFFFFFFFFFFFFCA
:10064000FFFFFFFFFFFFFFFFFFFFFFFFFFFFFFFFBA
:10065000FFFFFFFFFFFFFFFFFFFFFFFFFFFFFFFFAA
:10066000FFFFFFFFFFFFFFFFFFFFFFFFFFFFFFFF9A
:10067000FFFFFFFFFFFFFFFFFFFFFFFFFFFFFFFF8A
:10068000FFFFFFFFFFFFFFFFFFFFFFFFFFFFFFFF7A
:10069000FFFFFFFFFFFFFFFFFFFFFFFFFFFFFFFF6A
:1006A000FFFFFFFFFFFFFFFFFFFFFFFFDEFFFFFF7B
:1006B000DFFFDFFFFEFF1ADF39C63BCE77BD0E94AA
:1006C000717BAC62A739E220A118C218C320E420D4
:1006D00062ABC4E5C2B440410218C2206339C849C4
:1006E000A172038362728159266A50A4D6C5F6BDF1
:1006F000D7D6FEFFFFFFDFFFFFFFFFFFFFF7FFFF84
:10070000FFFFFFFFFFFFFFFFFFFFFFFFFFFFFFFFF9
:10071000FFFFFFFFFFFFFFFFFFFFFFFFFFFFFFFFE9
:10072000FFFFFFFFFFFFFFFFFFFFFFFFFFFFFFFFD9
:10073000FFFFFFFFFFFFFFFFFFFFFFFFFFFFFFFFC9
:10074000FFFFFFFFFFFFFFFFFFFFFFFFFFFFFFFFB9
:10075000FFFFFFFFFFFFFFFFFFFFFFFFFFFFFFFFA9
:10076000FFFFFFFFFFFFFFFFDFFFFFFFFFFFFFFFB9
:10077000FFFFDFFFFFFFFFFF7CF717CE9BDEDAE610
:100780002C9443622362006A60720083A193E29B0F
:10079000C29B418BE08260D4A0ED60D5C0A3038BE7
:1007A000218B008B2193C3A3C4C4C3E561D5C0A32F
:1007B00003832EA4F9DDBCDE95B59CF7FEFFDFFFB9
:1007C000FFFFFFFFFEFFFFFFFFFFFFFFFFFFFFFF3A
:1007D000FFFFFFFFFFFFFFFFFFFFFFFFFFFFFFFF29
:1007E000FFFFFFFFFFFFFFFFFFFFFFFFFFFFFFFF19
:1007F000FFFFFFFFFFFFFFFFFFFFFFFFFFFFFFFF09
:10080000FFFFFFFFFFFFFFFFFFFFFFFFFFFFFFFFF8
:10081000FFFFFFFFFFFFFFFFFFFFFFFFFFFFFFFFE8
:10082000FFFFFFFFFFFFFFFFFFFFFFFFFFFFDFFFF8
:10083000FFFFFFFFDFF7FFFFFFFFDFFF3CE798D67B
:100840007DFFB5CD636AE07A23AC829B00E540ED85
:10085000A0F5E1F5E0FDC0F5A0ED80ED60EDA0EDC7
:10086000C0EDC0EDC3EDA2ED80ED80EDE3D420BC82
:1008700000BC40E520FEC0E541B4039393A4BAE672
:1008800056CE7BEFFFFFFFFFFFFFFEFFFFFFFFFFE7
:10089000FFFFFFFFFFFFFFFFFFFFFFFFFFFFFFFF68
:1008A000FFFFFFFFFFFFFFFFFFFFFFFFFFFFFFFF58
:1008B000FFFFFFFFFFFFFFFFFFFFFFFFFFFFFFFF48
:1008C000FFFFFFFFFFFFFFFFFFFFFFFFFFFFFFFF38
:1008D000FFFFFFFFFFFFFFFFFFFFFFFFFFFFFFFF28
:1008E000FFFFFFFFFFFFFFFFFFFFFFFFFFFFFFFF18
:1008F000FFFFFFFFFFFFFFFFFFFFFFFFFFFFDFFF28
:100900003EEFDBD6BEFFEFB4E07A82BCE3D440C456
:1009100042E560ED60ED60ED60ED60ED60ED80ED75
:10092000A0F5C1F5A0EDC0E5E0EDC0EDC0EDC0F56E
:10093000A0F5A0ED80E5E0DC80D4E0DC81EDA1ED68
:1009400040DD03830A9C77DEBADEDEF7FEFFFFFFA1
:100950009FFFFFFFFFFFFFFFFFFFFFFFFFFFFFFF07
:10096000FFFFFFFFFFFFFFFFFFFFFFFFFFFFFFFF97
:10097000FFFFFFFFFFFFFFFFFFFFFFFFFFFFFFFF87
:10098000FFFFFFFFFFFFFFFFFFFFFFFFFFFFFFFF77
:10099000FFFFFFFFFFFFFFFFFFFFFFFFFFFFFFFF67
:1009A000FFFFFFFFFFFFFFFFFFFFFFFFFFFFFFFF57
:1009B000FFFFFFFFFFFFFFFFFFFFFFFFFFFFFFFF47
:1009C000FFFFFFFF7EF7BBE6DFFF91C5229CE0C47F
:1009D000A0ED42ED41ED60ED80ED80EDA0EDC0EDCC
:1009E000E1EDC1EDC1EDA0EDA1EDC1EDE0EDE0ED7A
:1009F000E0EDE1EDE1EDE0EDC0E5E0EDC0ED60ED55
:100A000022E522E560E580ED21D5C1A34ECDDDFFD5
:100A1000FBE6BEF7FFFFFFFFFFFFFFFFFFFFFFFF4C
:100A2000FFFFFFFFFFFFFFFFFFFFFFFFFFFFFFFFD6
:100A3000FFFFFFFFFFFFFFFFFFFFFFFFFFFFFFFFC6
:100A4000FFFFFFFFFFFFFFFFFFFFFFFFFFFFFFFFB6
:100A5000FFFFFFFFFFFFFFFFFFFFFFFFFFFFFFFFA6
:100A6000FFFFFFFFFFFFFFFFFFFFFFFFFFFFFFFF96
:100A7000FFFFFFFFFFFFFFFFFFFFFFFFFFFFFFFF86
:100A8000FFFFFFFFFFFFFFFFBEFFBDFFBCFF3BFF00
:100A9000AAD580D580E540E540ED40EDA0F5E0F534
:100AA000C0EDC0EDC0EDC0EDE0EDC0EDC0EDC0EDBE
:100AB000C0EDC0EDE0EDE0EDC0EDA0EDA0EDA1E5F5
:100AC000C1EDC0EDC0EDC0EDA0ED80ED80E580EDA5
:100AD00060E5E3CCEEE5DCFF5EF7FFFFFFFFFFFF25
:100AE000FFFFFFFFFFFFFFFFFFFFFFFFFFFFFFFF16
:100AF000FFFFFFFFFFFFFFFFFFFFFFFFFFFFFFFF06
:100B0000FFFFFFFFFFFFFFFFFFFFFFFFFFFFFFFFF5
:100B1000FFFFFFFFFFFFFFFFFFFFFFFFFFFFFFFFE5
:100B2000FFFFFFFFFFFFFFFFFFFFFFFFFFFFFFFFD5
:100B3000FFFFFFFFFFFFFFFFFFFFFFFFFFFFFFFFC5
:100B4000FFFFFFFFFFFFFFFFFFFFFFFFDFFFBDFF17
:100B5000FCFFBAFF89E583E560DDA0ED60ED60EDA7
:100B600001F680E5C0EDC0EDC0EDC0EDE0EDE0EDDB
:100B7000C0EDC0ED00EEE0EDE0EDE0F5E0EDE0ED24
:100B8000E0EDE1EDA1EDE0EDE0EDC0EDA0EDC2F5B1
:100B9000C0ED80ED60ED80ED80ED42DD2DEEFBFFE0
:100BA000BEF7FFF7FFFFFFFFFFFFFFFFFFFFFFFFA6
:100BB000FFFFFFFFFFFFFFFFFFFFFFFFFFFFFFFF45
:100BC000FFFFFFFFFFFFFFFFFFFFFFFFFFFFFFFF35
:100BD000FFFFFFFFFFFFFFFFFFFFFFFFFFFFFFFF25
:100BE000FFFFFFFFFFFFFFFFFFFFFFFFFFFFFFFF15
:100BF000FFFFFFFFFFFFFFFFFFFFFFFFFFFFFFFF05
:100C0000FFFFFFFFFFFFFFFFFFFFFFFFFFFFDFFF14
:100C1000FFFFFFFFFDFFBAFF11CE40E560ED40EDA5
:100C200040EDA1F5C2F580E5E0E5A0EDA0EDA0ED79
:100C3000C1EDC1EDE2F502F622FE41E621EE43F6FA
:100C400044F602F600EE21F602EEC0F5A0F5A1EDA5
:100C5000C1EDC0EDA0ED80EDA3F580ED40E540EDE8
:100C600080ED82DD6CE6FDFFFFF7FFFFFFFFFFFF7A
:100C7000FFFFFFFFFFFFFFFFFFFFFFFFFFFFFFFF84
:100C8000FFFFFFFFFFFFFFFFFFFFFFFFFFFFFFFF74
:100C9000FFFFFFFFFFFFFFFFFFFFFFFFFFFFFFFF64
:100CA000FFFFFFFFFFFFFFFFFFFFFFFFFFFFFFFF54
:100CB000FFFFFFFFFFFFFFFFFFFFFFFFFFFFFFFF44
:100CC000FFFFFFFFFFFFFFFFFFFFFFFFFFFFFFFF34
:100CD000DFFFDFFFFFFFDFF7FFFFDDFF07EE01EDC7
:100CE00060E560E580EDA0EDC0EDC0EDC0EDA0EDEC
:100CF000E0ED00EE21F640F620EE20EE40EE60F64C
:100D000040EE40EE40EE40EE40EE40EE40EE40EE73
:100D100040EE40EE20EE00EEE0EDC0EDA0EDC0EDC7
:100D2000C0EDA1ED61ED60ED60ED61DD6FF6DDFF21
:100D3000DFFFFDF7FEFFFFFFDFFFDFFFFFFFFFFF2E
:100D4000FFFFFFFFFFFFFFFFFFFFFFFFFFFFFFFFB3
:100D5000FFFFFFFFFFFFFFFFFFFFFFFFFFFFFFFFA3
:100D6000FFFFFFFFFFFFFFFFFFFFFFFFFFFFFFFF93
:100D7000FFFFFFFFFFFFFFFFFFFFFFFFFFFFFFFF83
:100D8000FFFFFFFFFFFFFFFFFFFFFFFFFFFFFFFF73
:100D9000FFFFFFFFFFFFFFFFFFFFFFFFFFFFFFFF63
:100DA00010F783E520ED60E580EDA0EDA0EDC0ED4E
:100DB000C0EDE0ED01EE00EE20F641F640F640F623
:100DC00040EE40EE40F640EE40EE40EE40F640EEA3
:100DD00040EE40EE40EE40EE40EE20EE20EE00EE23
:100DE000E0EDC0EDC0EDA0EDA1ED81ED80ED80ED79
:100DF00040DDC8E5F3FEDFFFFEFFFFF7FFFFFFFF6B
:100E0000DFFFFFFFFFFFFFFFFFFFFFFFFFFFFFFF12
:100E1000FFFFFFFFFFFFFFFFFFFFFFFFFFFFFFFFE2
:100E2000FFFFFFFFFFFFFFFFFFFFFFFFFFFFFFFFD2
:100E3000FFFFFFFFFFFFFFFFFFFFFFFFFFFFFFFFC2
:100E4000FFFFFFFFFFFFFFFFFFFFFFFFFFFFFFFFB2
:100E5000FFFFFFFFFFFFFFFFFFFFFFFFFFFFFDFFA4
:100E6000FEF7FFFF57FFE2DD20DD60ED80EDA0ED36
:100E7000C0EDC0EDC0EDE0ED00EE41F641F641F60B
:100E800041F640F640F640EE40EE40EE40F640F6C9
:100E900040F640F640F640F640EE40EE40EE40EEC2
:100EA00040EE40F620F620F6E0EDC0EDA0EDC0EDFE
:100EB000A0EDA0EDA0ED40DD62DDC7E599FFFFFFED
:100EC000FFFFFFF7FFFFFFFFFFFFFFF7FFFFFFFF42
:100ED000FFFFFFFFFFFFFFFFFFFFFFFFFFFFFFFF22
:100EE000FFFFFFFFFFFFFFFFFFFFFFFFFFFFFFFF12
:100EF000FFFFFFFFFFFFFFFFFFFFFFFFFFFFFFFF02
:100F0000FFFFFFFFFFFFFFFFFFFFFFFFFFFFFFFFF1
:100F1000FFFFFFFFFFFFFFFFFFFFFFFFFFFFFFFFE1
:100F2000FFFFFFFFFEF7FFFFBFFF8AEE20DD40E57A
:100F3000A0EDA0EDA0EDC0EDC0EDE0ED00EE20F6DF
:100F400041F640F640F640F640F660F660F660F690
:100F500060F660F660F660F660F660F660F640F601
:100F600040F640EE40EE40EE40F640F620F600F649
:100F700000EEC0EDE0EDC0EDC0EDC0ED80ED40E570
:100F800040E5AFEEBDFFFFFFFEF7FFFFFFFFFFFFF6
:100F9000FFFFFFFFFFFFFFFFFFFFFFFFFFFFFFFF61
:100FA000FFFFFFFFFFFFFFFFFFFFFFFFFFFFFFFF51
:100FB000FFFFFFFFFFFFFFFFFFFFFFFFFFFFFFFF41
:100FC000FFFFFFFFFFFFFFFFFFFFFFFFFFFFFFFF31
:100FD000FFFFFFFFFFFFFFFFFFFFFFFFFFFFFFFF21
:100FE000FFFFFFFFFFFFFFFFFFFFFFF7FFFFF6F62B
:100FF000A1DD40E560EDE0EDC0EDC0EDC0EDE0ED60
:1010000000EE20F640F640F640EE40F640EE60F688
:1010100060F680F6A0F6A0F680FE80FE80FE80FEE0
:1010200080FE80F680F660F680F660F640EE40EED8
:1010300040EE40F620EE20EEE1EDE0F5C0EDA0ED53
:10104000C1EDA1ED60ED40EDA6D538FFDFFFFFFF5C
:10105000FFFFFFFFFFFFFFFFFFFFFFFFFFFFFFFFA0
:10106000FFFFFFFFFFFFFFFFFFFFFFFFFFFFFFFF90
:10107000FFFFFFFFFFFFFFFFFFFFFFFFFFFFFFFF80
:10108000FFFFFFFFFFFFFFFFFFFFFFFFFFFFFFFF70
:10109000FFFFFFFFFFFFFFFFFFFFFFFFFFFFFFFF60
:1010A000FFFFFFFFFFFFFFFFFFFFFFFFFFFFFFF758
:1010B000FFFFBFFF0AE620DD81F560EDE0EDC0ED4A
:1010C000C0EDC0ED00EE20F640F640EE40EE40EE02
:1010D00060F660F680F680F6A0F6C0F6C0FEC0FEB0
:1010E000C0FEC0FEC0FEC0FEA0FEA0FEA0FE80FEB0
:1010F00080F660F640EE40EE40EE40EE40F621F61F
:1011000001F6C0EDA0E5A1E5A1ED80ED40ED20DD0B
:101110008FFEFDFFFFFFFFF7FFFFFFFFFFFFFFFF5A
:10112000FFFFFFFFFFFFFFFFFFFFFFFFFFFFFFFFCF
:10113000FFFFFFFFFFFFFFFFFFFFFFFFFFFFFFFFBF
:10114000FFFFFFFFFFFFFFFFFFFFFFFFFFFFFFFFAF
:10115000FFFFFFFFFFFFFFFFFFFFFFFFFFFFFFFF9F
:10116000FFFFFFFFFFFFFFFFFFFFFFFFFFFFFFFF8F
:10117000FFFFFFFFFFF7FFFFF6FE83E540E5C0ED51
:10118000A0E5E0EDC0EDE0ED00EE20F640F640EE2B
:1011900040EE40EE60F680F6A0FEA0FEC0FEC0F677
:1011A000C0FEE0FEC0F6C0F6E0F6E0F6E0F6C0F6FF
:1011B000C0F6C0F6A0FEA0FE80F660F660F640EE37
:1011C00040EE60EE40EE21F6E1F5A0EDA0E5C0E5D1
:1011D000A0ED80ED20E5C6E577FFFFFFFFFFFFFFF5
:1011E000FFFFDFFFFFFFFFFFFFFFFFFFFFFFFFFF2F
:1011F000FFFFFFFFFFFFFFFFFFFFFFFFFFFFFFFFFF
:10120000FFFFFFFFFFFFFFFFFFFFFFFFFFFFFFFFEE
:10121000FFFFFFFFFFFFFFFFFFFFFFFFFFFFFFFFDE
:10122000FFFFFFFFFFFFFFFFFFFFFFFFFFFFFFFFCE
:10123000FFFFFFFFFFFFFFFFFFFFFFF7BEFF6BF6A4
:1012400042E560E5C0ED00EEC0EDC0E501EE41F61F
:1012500041F640F640EE40EE60F680F6A0FEC0FE9D
:10126000E0FEC0FEC0FEC0FEE0FEE0F6E0F6E0F606
:10127000E0F6E0F6E0F6E0F6E0F6A0FEA0FEA0FE66
:10128000A0FE80F660EE60EE40EE40EE21F601FE3C
:10129000E0F5E0EDE0E5E0EDA0ED40F540DDF2F653
:1012A000DFFFFFFFFFFFFFFFDFFFFFFFFFFFFFFF8E
:1012B000FFFFFFFFFFFFFFFFFFFFFFFFFFFFFFFF3E
:1012C000FFFFFFFFFFFFFFFFFFFFFFFFFFFFFFFF2E
:1012D000FFFFFFFFFFFFFFFFFFFFFFFFFFFFFFFF1E
:1012E000FFFFFFFFFFFFFFFFFFFFFFFFFFFFFFFF0E
:1012F000FFFFFFFFFFFFFFFFFFFFFFFFFFFFFFFFFE
:10130000FFF79DFF86E580E5A2EDE0F5C0E501E68B
:1013100041EE04DE80E623EE20F640FE83F6A8E6EA
:1013200011DFD2DE92DEB1E6EDEE25F721F703FF05
:1013300081FE03FFC2F620FFE0F6E1F642F727E761
:10134000ADEED0EEB3E693DECFE6A9EE63F620F67F
:1013500040FE02F640F6E4F5C1F5E0F5A0ED01EE41
:1013600061ED60EDC7EDBEFFFFFFFFFFFFFFFFFF79
:10137000FFFFFFFFFFFFFFFFFFFFFFFFFFFFFFFF7D
:10138000FFFFFFFFFFFFFFFFFFFFFFFFFFFFFFFF6D
:10139000FFFFFFFFFFFFFFFFFFFFFFFFFFFFFFFF5D
:1013A000FFFFFFFFFFFFFFFFFFFFFFFFFFFFFFFF4D
:1013B000FFFFFFFFFFFFFFFFFFFFFFFFFFFFFFFF3D
:1013C000FFFFFFFFFFFFFEFF36FF61DD80ED80EDD9
:1013D000E0F5E0EDE1E500EE42FE22FE20EEA0EEBB
:1013E0006EEE14DEF4D510B58DBDCDBD6EB551B524
:1013F000F8D5B2E644DF40FFC0F6E0F6C1F621F7CB
:1014000023EF6EE616E693BD6FB58CADAEB570B545
:1014100093BD35D674E661E660E660EE40F6E1ED38
:10142000C2EDC0EDC0ED82ED80E583DD7BFFFFFF07
:10143000FFFFFEFFFFFFFFFFFFFFFFFFFFFFFFFFBD
:10144000FFFFFFFFFFFFFFFFFFFFFFFFFFFFFFFFAC
:10145000FFFFFFFFFFFFFFFFFFFFFFFFFFFFFFFF9C
:10146000FFFFFFFFFFFFFFFFFFFFFFFFFFFFFFFF8C
:10147000FFFFFFFFFFFFFFFFFFFFFFFFFFFFFFFF7C
:10148000FFFFFFFFFFFFFFFFFFFFFFFFFFFFB1F6C3
:1014900060DDC0F5A1F5A0EDA1EDE3ED20EE40FE8D
:1014A00040FE80EE11DE95C52AB545BD44CD02C58E
:1014B000C0B402B5A6C549B50DADD6CDC9E640F755
:1014C000C1F620F7C7E695CD90CD26BDC5CD44C564
:1014D000C2B4E0BC41C544BD2ABD50BD33D686E68A
:1014E00080EE80F641EE02E6E0ED80EDC0EDC0E575
:1014F00080D514F7FFFFFFFFFFFFFFFFFFFFFFFF98
:10150000FFFFFFFFFFFFFFFFFFFFFFFFFFFFFFFFEB
:10151000FFFFFFFFFFFFFFFFFFFFFFFFFFFFFFFFDB
:10152000FFFFFFFFFFFFFFFFFFFFFFFFFFFFFFFFCB
:10153000FFFFFFFFFFFFFFFFFFFFFFFFFFFFFFFFBB
:10154000FFFFFFFFFFFFFFFFFFFFFFFFFFFFFFFFAB
:10155000FFFFDFFF4BE680DDE0F5E0EDC0EDE1ED04
:1015600063F680F640EEA1F62FE6F3B4C7B5A2BD50
:1015700060ACA2C402CD81D521CD80B4C0B444BD3D
:101580000ABD55C5A9DEE0FF04EFB7D511B501BE10
:1015900023AD20ACC1C441D521D5A1C461B4A1B44F
:1015A00023BD52BD92CD24DE60EE24EE00EEC1F5E7
:1015B000A2F5A1EDA0ED60DD6FE6FEFFFFFFDFFF0E
:1015C000FEFFFFFFFFFFFFFFFFFFFFFFFFFFFFFF2C
:1015D000FFFFFFFFFFFFFFFFFFFFFFFFFFFFFFFF1B
:1015E000FFFFFFFFFFFFFFFFFFFFFFFFFFFFFFFF0B
:1015F000FFFFFFFFFFFFFFFFFFFFFFFFFFFFFFFFFB
:10160000FFFFFFFFFFFFFFFFFFFFFFFFFFFFFFFFEA
:10161000FFFFFFFFFFFFFFFFBFFF08E680E580ED54
:10162000A0EDC0EDE0ED41EEE3ED80E689BDF5B45F
:10163000A6BDA2BD50C5FAF6BCFFDBFF9BFF9BFF1A
:1016400079FF35DE6CBDC2B5ECB4B5CD86E7B1E649
:101650006DA480CE48AD37CEDBFFDBFFFCFFFCFF87
:101660009BFF59F752D6CAA441ADF2BCABCD60E6A0
:1016700022F6C2F580EDA1EDA2FD80F580ED2BE60E
:10168000FDFFDFFFFFFFFDFFFFFFFFFFFFFFFFFF8E
:10169000FFFFFFFFFFFFFFFFFFFFFFFFFFFFFFFF5A
:1016A000FFFFFFFFFFFFFFFFFFFFFFFFFFFFFFFF4A
:1016B000FFFFFFFFFFFFFFFFFFFFFFFFFFFFFFFF3A
:1016C000FFFFFFFFFFFFFFFFFFFFFFFFFFFFFFFF2A
:1016D000FFFFFFFFFFFFFFFFFFFFFFFFFFFF99FF80
:1016E000C5DDE1F5E0F500F620F640F660F681FE96
:1016F00043E60FB5EBA402A535DE7FF7FFF7FEF753
:10170000FFF7FFFFFFFFDFFFFFFF7CEFB3B504C66E
:1017100032B597DE72BDE4C525CE5FE6DFFFFDF78B
:10172000FFFFFFFF9EEFFDFFFCFFBEF7DEDE26B5ED
:10173000A8A4D0B405D6A0F681FE40F620E6E0EDE0
:10174000E0F5E0ED06DEFCFFDFFFDFFFFFFFFFFF60
:10175000FFFFFFFFFFFFFFFFFFFFFFFFFFFFFFFF99
:10176000FFFFFFFFFFFFFFFFFFFFFFFFFFFFFFFF89
:10177000FFFFFFFFFFFFFFFFFFFFFFFFFFFFFFFF79
:10178000FFFFFFFFFFFFFFFFFFFFFFFFFFFFFFFF69
:10179000FFFFFFFFFFFFFFFFFFFFFFFFFFFFFFFF59
:1017A000FFFFFFFFF7FF02B522CD61D561CD63D505
:1017B000C2D5E2CDE0CD4BC590B484BDCEC55FFFB0
:1017C000FDFFFCF77AFFCFC508B52DBD99EEFDFFF3
:1017D000FCFF1CDF67B507AD52A4CAA4E7BDD5C5A1
:1017E000DFFFFFFFDFFFB6EE4CC5EABCB2D53CFF22
:1017F000DFFFFFFFF9DDE5A4CFB44DC580C5C2D53D
:10180000C3CD63C582C542CD23C526ADFDFFFFFF15
:10181000DFFFFFFFFFFFFFFFFFFFFFFFFFFFFFFFF8
:10182000FFFFFFFFFFFFFFFFFFFFFFFFFFFFFFFFC8
:10183000FFFFFFFFFFFFFFFFFFFFFFFFFFFFFFFFB8
:10184000FFFFFFFFFFFFFFFFFFFFFFFFFFFFFFFFA8
:10185000FFFFFFFFFFFFFFFFFFFFFFFFFFFFFFFF98
:10186000FFFFFFFFFFFFFFFFFFFFDCCEA441A1381A
:10187000E1380231C43001390229E3184B7BC9B485
:10188000A1C5D3CDDFFFDFFF7DFF29BC259B65A36D
:10189000A18A849397EEDFFFFFFF90BD67BD099C8F
:1018A00066B507BE1ADFFEFFDFFF75EE899B259B3D
:1018B00023A36082CBB4FCFFFFF73CEF0AADC9ACB9
:1018C0006C8B243900292131C3380331C238A1304F
:1018D000C241FEDEFFFFFFFFFFFFFFFFFFFFFFFF35
:1018E000FFFFFFFFFFFFFFFFFFFFFFFFFFFFFFFF08
:1018F000FFFFFFFFFFFFFFFFFFFFFFFFFFFFFFFFF8
:10190000FFFFFFFFFFFFFFFFFFFFFFFFFFFFFFFFE7
:10191000FFFFFFFFFFFFFFFFFFFFFFFFFFFFFFFFD7
:10192000FFFFFFFFFFFFFFFFFFFFFFFFFFFFFFFFC7
:101930003CE7E020A2200221E320C528C220A31812
:10194000A431709CAAACA6BD9AD6FEF7BFFF91E564
:101950004182886A16BEA439E059A8B4FEFFFFE7A9
:1019600016C6A4BD8B9BC7CDADB5BEF7BFFFBEFFEE
:1019700047BCE059309472A4E040C382D3DDFFFF3E
:10198000FFFF4DADE7A44F9C6852A110C820C220B4
:101990000211E320822024299DEFFEFFFFF7FFFFC5
:1019A000FFFFFFFFFFFFFFFFFFFFFFFFFFFFFFFF47
:1019B000FFFFFFFFFFFFFFFFFFFFFFFFFFFFFFFF37
:1019C000FFFFFFFFFFFFFFFFFFFFFFFFFFFFFFFF27
:1019D000FFFFFFFFFFFFFFFFFFFFFFFFFFFFFFFF17
:1019E000FFFFFFFFFFFFFFFFFFFFFFFFFFFFFFFF07
:1019F000FFFFFFFFFFFFBFDEC32042186110821010
:101A000044186118831804316A7BC9A4E4BDBADEA6
:101A1000FFFFDFFF4AC5417A0020E6300010606119
:101A2000E4B359FFDFFF17C687B5EFA306C6ECBDC9
:101A3000BFF7FEFF5AF7E4BB0049A420C5280020E9
:101A400042722CC5BCFFFEFFAEB548ADCA8BC428A0
:101A500082208320822084186320022004313DEFFD
:101A6000FFFFFFFFFFFFFFFFFFFFFFFFFFFFFFFF86
:101A7000FFFFFFFFFFFFFFFFFFFFFFFFFFFFFFFF76
:101A8000FFFFFFFFFFFFFFFFFFFFFFFFFFFFFFFF66
:101A9000FFFFFFFFFFFFFFFFFFFFFFFFFFFFFFFF56
:101AA000FFFFFFFFFFFFFFFFFFFFFFFFFFFFFFFF46
:101AB000FFFFFFFFFFFFFFFFFFFFFFFFDCE683628B
:101AC0002362415A816242624062615A0262087333
:101AD000AC9CE5B597D6FFFFDBFFEDC5A06AE0281B
:101AE000A3206120015A88ACFBFFDFFF36CEE59CC6
:101AF00094AC68ADE7B53FEFFBFFFDFF07ACE251EB
:101B0000411042180139C47291C5FEFF9FFF6DADAF
:101B10008B946A7B035AA27220626162205A20620F
:101B20000062C2723BEFFFFFFFFFFFFFFFFFFFFFFF
:101B3000FFFFFFFFFFFFFFFFFFFFFFFFFFFFFFFFB5
:101B4000FFFFFFFFFFFFFFFFFFFFFFFFFFFFFFFFA5
:101B5000FFFFFFFFFFFFFFFFFFFFFFFFFFFFFFFF95
:101B6000FFFFFFFFFFFFFFFFFFFFFFFFFFFFFFFF85
:101B7000FFFFFFFFFFFFFFFFFFFFFFFFFFFFFFFF75
:101B8000FFFFF6FFC1D501EE00E680EE82F6A0F67B
:101B900080EEA1F6CBACEF8BA4ADB0BDDFFFDFFFD5
:101BA0003CEFE5A340726051216A6583D0CDFEFF12
:101BB000BFFFADB5089DF7ACCD9C04B69BDEFFFF23
:101BC000DFF711DEC58BE059A059607A28AC19F710
:101BD000FFFFBBEE68A54D8C4C9C43DE80EE40E6DB
:101BE000C2EE83E642EE01EE04DEFBFFFFFFFFFFE5
:101BF000FFFFFFFFFFFFFFFFFFFFFFFFFFFFFFFFF5
:101C0000FFFFFFFFFFFFFFFFFFFFFFFFFFFFFFFFE4
:101C1000FFFFFFFFFFFFFFFFFFFFFFFFFFFFFFFFD4
:101C2000FFFFFFFFFFFFFFFFFFFFFFFFFFFFFFFFC4
:101C3000FFFFFFFFFFFFFFFFFFFFFFFFFFFFFFFFB4
:101C4000FFFFFFFFFFFFFFFF38FFC3E5E1F5A1ED59
:101C500020EE21F620F620EEC0FEE7B430738BAD07
:101C6000AABDBCE6DFFFFBFF97F6CDBCC79BABB4BC
:101C700034D6FFFFFFFF99D688AD2C8C2D73CE8311
:101C800005BE90BDBFFFFFFFDDFFF3D5A8AC46AC9E
:101C9000EDC4B5F6FCFFDFF790BD2AA5AE8368A4BE
:101CA000C0F660F640F640E600E6C0EDA0EDE1E5E6
:101CB0009AFFFEFFFFFFFEFFFFFFFFFFFFFFFFFF9B
:101CC000FFFFFFFFFFFFFFFFFFFFFFFFFFFFFFFF24
:101CD000FFFFFFFFFFFFFFFFFFFFFFFFFFFFFFFF14
:101CE000FFFFFFFFFFFFFFFFFFFFFFFFFFFFFFFF04
:101CF000FFFFFFFFFFFFFFFFFFFFFFFFFFFFFFFFF4
:101D0000FFFFFFFFFFFFFFFFFFFFFFFFFFFF9BFF47
:101D100001DEC0EDC1ED41EE41F640F680F660FE19
:101D2000A0E6AA831194EBC5AEBDFDEEFBFFDFFF7D
:101D3000FEFFFDFFDDFFBEFFDFFFB7D671B50CA5CF
:101D4000C86AE26A6A628A9C88B552CE5CF7BFFFB5
:101D5000DFFFFDFF9DFFDFFFDFFF7DF779CEAAAD3F
:101D6000709C4A83C2CDC0FE40FE60FE41F602EE8A
:101D7000A1F580F5E2E59CFFFFFFFFFFFFFFFFFFFE
:101D8000FFFFFFFFFFFFFFFFFFFFFFFFFFFFFFFF63
:101D9000FFFFFFFFFFFFFFFFFFFFFFFFFFFFFFFF53
:101DA000FFFFFFFFFFFFFFFFFFFFFFFFFFFFFFFF43
:101DB000FFFFFFFFFFFFFFFFFFFFFFFFFFFFFFFF33
:101DC000FFFFFFFFFFFFFFFFFFFFFFFFFFFFFFFF23
:101DD000FFFFFFFFBCFF00DEC0EDE3F543F642EE80
:101DE00020EE40EE22FE20FFE3A40E7B4EB5C8BDE0
:101DF0002AAD8AC5AAEE0BF7AEF6ECFE68EE45C535
:101E0000E2B427B52B73237B40BD0583EA724AAD4C
:101E100047AD0CBD0ADEEAF60DFFCEF60BEF27CE7E
:101E200005ADA3A46FA5B18B46ACA0F681FE22F64A
:101E300020EE20EE21EEE1F5A0F5E1E59DFFFEF7B5
:101E4000FFFFDFFFFFFFFFFFFFFFFFFFFFFFFFFFC2
:101E5000FFFFFFFFFFFFFFFFFFFFFFFFFFFFFFFF92
:101E6000FFFFFFFFFFFFFFFFFFFFFFFFFFFFFFFF82
:101E7000FFFFFFFFFFFFFFFFFFFFFFFFFFFFFFFF72
:101E8000FFFFFFFFFFFFFFFFFFFFFFFFFFFFFFFF62
:101E9000FFFFFFFFFFFFFFFFFFFF79FFE0DDE0F542
:101EA000C1F521F641F620F640F640FEC0F640EFBF
:101EB000E48BCB72EFAC038CA0AC40AC63B4426A51
:101EC0002062009CE7B46EB5D383A75A829CC0D52C
:101ED000E1BCC76A2D738CC584CDA1AC61B440BC94
:101EE00060BC60B4A0AC68C5D2DD0E74887B61E6CE
:101EF000E0FE40F640EE60F660F621EEC1F581F5B9
:101F0000C0DDBDFFFDFFFFFFFFFFFFFFFFFFFFFF86
:101F1000FFFFFFFFFFFFFFFFFFFFFFFFFFFFFFFFD1
:101F2000FFFFFFFFFFFFFFFFFFFFFFFFFFFFFFFFC1
:101F3000FFFFFFFFFFFFFFFFFFFFFFFFFFFFFFFFB1
:101F4000FFFFFFFFFFFFFFFFFFFFFFFFFFFFFFFFA1
:101F5000FFFFFFFFFFFFFFFFFFFFFFFFFFFFFFFF91
:101F60009AFFC0E5A0F502EE40EE40F640EE60F6C6
:101F700060F6E0FE02FFC0E6419C644983286A8364
:101F8000B0DE27736020401891A455B54B73C55A35
:101F9000E0B460C5C0D5A0D501BDE372EB6AD29CA8
:101FA00030CE2ECE29C648C6AED6F5CD729C4C7327
:101FB00040A424E602FFC0FE80F640EE40EE40EE74
:101FC00021EE01EEA0ED01E69CFFFFFFFFFFFFFF0A
:101FD000FFFFFFFFFFFFFFFFFFFFFFFFFFFFFFFF11
:101FE000FFFFFFFFFFFFFFFFFFFFFFFFFFFFFFFF01
:101FF000FFFFFFFFFFFFFFFFFFFFFFFFFFFFFFFFF1
:10200000FFFFFFFFFFFFFFFFFFFFFFFFFFFFFFFFE0
:10201000FFFFFFFFFFFFFFFFFFFFFFFFFFFFFFFFD0
:10202000FFFFFFFFFFFF9AFFC0E5A0F502EE40EEC5
:1020300040F640EE60F6A1FE80F6C0F640F7C2C55D
:10204000E659264144414E8B45410239E138676AE1
:10205000287BC183A0B500D600D6E0D5E0D522DE2E
:1020600022B5C38BC56AE96A8E83319C309C6D832F
:10207000A96A4473629485EE25FF00FFA0F680F6FE
:1020800060F660F640EE21EE01EEA0ED01E69CFF69
:10209000FFFFFFFFFFFFFFFFFFFFFFFFFFFFFFFF50
:1020A000FFFFFFFFFFFFFFFFFFFFFFFFFFFFFFFF40
:1020B000FFFFFFFFFFFFFFFFFFFFFFFFFFFFFFFF30
:1020C000FFFFFFFFFFFFFFFFFFFFFFFFFFFFFFFF20
:1020D000FFFFFFFFFFFFFFFFFFFFFFFFFFFFFFFF10
:1020E000FFFFFFFFFFFFFFFFFFFFFFFF9AFFC0E5BE
:1020F000A0F502EE60EE40F640EE60F680F6A1FE3E
:10210000E0F620FF24DE645165492239A351464997
:102110004230E47AC4AC80A482C541D640D6E2CD38
:10212000E1CDA1C501D680DE40D621BDC39CE28BA6
:10213000437B6283E293C2AC41D660F703F701F7B9
:10214000C0F6A0F660F640EE60F660EE21EE01EE1D
:10215000A0ED01E69CFFFFFFFFFFFFFFFFFFFFFF7A
:10216000FFFFFFFFFFFFFFFFFFFFFFFFFFFFFFFF7F
:10217000FFFFFFFFFFFFFFFFFFFFFFFFFFFFFFFF6F
:10218000FFFFFFFFFFFFFFFFFFFFFFFFFFFFFFFF5F
:10219000FFFFFFFFFFFFFFFFFFFFFFFFFFFFFFFF4F
:1021A000FFFFFFFFFFFFFFFFFFFFFFFFFFFFFFFF3F
:1021B000FFFF9AFFC0E5A0F502EE60EE41F640EEAB
:1021C00060F6A0FEC0FEC0F623FFA5D544518649A7
:1021D000A4494751A338E25965A4E37A0241214159
:1021E000249C6CB54FBDB2C571C50BB564BD20D67E
:1021F00040DE40CE40CE40D640D640D6A0E6E0F607
:10220000E0F6E0EEE0F600F7E0FE80F620EE60F6A5
:1022100040EE21EE01EEA0ED01E69CFFFFFFFFFF87
:10222000FFFFFFFFFFFFFFFFFFFFFFFFFFFFFFFFBE
:10223000FFFFFFFFFFFFFFFFFFFFFFFFFFFFFFFFAE
:10224000FFFFFFFFFFFFFFFFFFFFFFFFFFFFFFFF9E
:10225000FFFFFFFFFFFFFFFFFFFFFFFFFFFFFFFF8E
:10226000FFFFFFFFFFFFFFFFFFFFFFFFFFFFFFFF7E
:10227000FFFFFFFFFFFFFFFFBAFFC0E5A0F502EE83
:1022800060EE41F640EE60F680F6A0FE22FF03FF0E
:10229000C293835189516641214165498551C3519A
:1022A0004139E430442054A41BEFFCE6FFEEDFE6A6
:1022B0007ADE14D6CACD23D680DEA0DE80DE81E6AB
:1022C000A1EE01FF02FFA2F622FF01F7E0F6C0FE39
:1022D00080F641F661F620EE21EE01EEA0ED01E67A
:1022E0009CFFFFFFFFFFFFFFFFFFFFFFFFFFFFFF61
:1022F000FFFFFFFFFFFFFFFFFFFFFFFFFFFFFFFFEE
:10230000FFFFFFFFFFFFFFFFFFFFFFFFFFFFFFFFDD
:10231000FFFFFFFFFFFFFFFFFFFFFFFFFFFFFFFFCD
:10232000FFFFFFFFFFFFFFFFFFFFFFFFFFFFFFFFBD
:10233000FFFFFFFFFFFFFFFFFFFFFFFFFFFFBAFFF2
:10234000C0EDA0F502EE60EE41F640EE60F660F6FC
:1023500000FF82EE61A4214163496849C751654984
:10236000A451423924396220243129739AFF9BF702
:10237000BAF79BEF7BEF9BF73CEFD3CDEAC540F775
:1023800060F740F700F722FF00FFE0F600FFE2F6FB
:10239000C1F6A0F680F640F640F681F620EE21EE7A
:1023A00001EEA0ED01E69CFFFFFFFFFFFFFFFFFF37
:1023B000FFFFFFFFFFFFFFFFFFFFFFFFFFFFFFFF2D
:1023C000FFFFFFFFFFFFFFFFFFFFFFFFFFFFFFFF1D
:1023D000FFFFFFFFFFFFFFFFFFFFFFFFFFFFFFFF0D
:1023E000FFFFFFFFFFFFFFFFFFFFFFFFFFFFFFFFFD
:1023F000FFFFFFFFFFFFFFFFFFFFFFFFFFFFFFFFED
:10240000FFFFFFFFBAFFC0EDA0F502EE60F641F658
:1024100040EE60F6A0FEC0FE40BDA149C730A6490F
:102420004441C551A951C538A228A1288549EC725B
:10243000EA7292C599E61AF73AF71AEFBAE6D8CDDA
:10244000529CB1A404F781FF80FF40F782FF41FF57
:10245000E1F6E2F6E1F601FFE0FEC0FE80F620EED6
:1024600040F620EE21EE01EEA0ED01E69CFFFFFF1D
:10247000FFFFFFFFFFFFFFFFFFFFFFFFFFFFFFFF6C
:10248000FFFFFFFFFFFFFFFFFFFFFFFFFFFFFFFF5C
:10249000FFFFFFFFFFFFFFFFFFFFFFFFFFFFFFFF4C
:1024A000FFFFFFFFFFFFFFFFFFFFFFFFFFFFFFFF3C
:1024B000FFFFFFFFFFFFFFFFFFFFFFFFFFFFFFFF2C
:1024C000FFFFFFFFFFFFFFFFFFFFBAFFC0EDA0F51B
:1024D00002EE60F641F640EE60F601F600E6A0C5B9
:1024E000075AEC516539223944410339A33061411F
:1024F000038C83836449C5382341E7592962486ABC
:10250000486207526239E0286A5A25C504F7C0FFBD
:1025100060F780FFA0FF40F700EFE0F6E0F6C0F6BE
:10252000C0FEA0FE20F640F640F621EE01EEA0ED42
:1025300001E69CFFFFFFFFFFFFFFFFFFFFFFFFFF25
:10254000FFFFFFFFFFFFFFFFFFFFFFFFFFFFFFFF9B
:10255000FFFFFFFFFFFFFFFFFFFFFFFFFFFFFFFF8B
:10256000FFFFFFFFFFFFFFFFFFFFFFFFFFFFFFFF7B
:10257000FFFFFFFFFFFFFFFFFFFFFFFFFFFFFFFF6B
:10258000FFFFFFFFFFFFFFFFFFFFFFFFFFFFFFFF5B
:10259000B9FFE0E580F5E3ED60E601E6A1ED60E579
:1025A00002E5C0D423DD459BE548274102292029C7
:1025B000E128E228A583C4C58051E34004492349AA
:1025C0000249E2400241E238034144490349E348F9
:1025D0002149C3E6C0FF41F781FF60FF00F703FF19
:1025E00001F700F700F7C0F680F640EE20F620F67F
:1025F00021F600FEA0ED02DE9AFFFFFFFFFFBEFF07
:10260000FEFFDFFFDFFFFFFFFFFFFEFFFFFFFFFF1C
:10261000FFFFFFFFFFFFFFFFDFFFFFFFFFFFFFF7F2
:10262000FFFFFFFFFFFFFFFFFFFFFFFFFFFFFFFFBA
:10263000FFFFFFFFFFFFFFFFFFFFFFFFFFFFFFFFAA
:10264000FFFFFFFFFFFFFFFFFFFFFFFFFFFFFFFF9A
:10265000FFFFFFFFFFFFDAEF02DE80F563F582E5A3
:1026600003DDC2DCE0D4A0D4A0CC00CD2093C040D8
:10267000C538A528A428E2288328E2304141014139
:1026800046492449634903492341444903410339E5
:102690002441034103490449C1C5C0FF81FF60FFD4
:1026A00080FF20F7E2F6E0FEE1FEC1FEA0FE80F62C
:1026B00060F620F620F643E601EEC0ED04E6BCFF2E
:1026C000FFFFFFF7FEF7DFFFFFFFFFFFFEFFDEFF6D
:1026D000FFFFFFFFDFFFDEFFFFFF59CE3CEFDFFF15
:1026E000FFFFFFFFFFFFFFFFFFFFFFFFFFFFFFFFFA
:1026F000FFFFFFFFFFFFFFFFFFFFFFFFFFFFFFFFEA
:10270000FFFFFFFFFFFFFFFFFFFFFFFFFFFFFFFFD9
:10271000FFFFFFFFFFFFFFFFFFFFFFFF18F7A3DD36
:1027200040ED00E5E0D481CC81D4A0D460E520F672
:10273000A2FE41CDE07A0262E13800204220A330BF
:10274000044185384141044105390539A230C23080
:1027500024410339C230033924412449C648E0B436
:10276000A0FFC0FF40F780FF01F7C1F6E1FEC1FE08
:10277000A1F6A1F681F660F640F620F660E600EEDE
:10278000E0F5C0EDCFFE77F7FEF7FFF7DFFFFFFFC5
:10279000FFFFFFF7FFF7FFFFFFFFFFFFDEFF8D7B70
:1027A000E3282C73FFFFFFFFDFFFDEFFFFFFFFFFCC
:1027B000FFFFFFFFFFFFFFFFFFFFFFFFFFFFFFFF29
:1027C000FFFFFFFFFFFFFFFFFFFFFFFFFFFFFFFF19
:1027D000FFFFFFFFFFFFFFFFFFFFFFFFFFFFFFFF09
:1027E000FFFF2DFEE0D4A0DC80D4C0CC40D5E1EDCD
:1027F00060F6A2FEC0FE00FF22FF04F7C6F623BD6E
:102800006083846AA05120416430A330444162391E
:10281000A0206120C228654103318120A2282441E3
:102820006549A64022BDA0FFA0FF40F760FF01F769
:10283000E1F601F7E2F6C2F681F660F640F620F620
:1028400001F620F601F602FE40ED61E563DDE9E503
:10285000B0FED7FFFDFFDFFFFFFFFFF7FEF7FFFF33
:10286000DEFFCE8B6441C228EE93DEFF3BF79DFF77
:10287000FFFFFFFFFFFFFFFFFFFFFFFFFFFFFFFF68
:10288000FFFFFFFFFFFFFFFFFFFFFFFFFFFFFFFF58
:10289000FFFFFFFFFFFFFFFFFFFFFFFFFFFFFFFF48
:1028A000FFFFFFFFFFFFFFFF70C564ACC0C420E562
:1028B000C0F541F641EE40EEA0F6E0FEC0F600F7AE
:1028C000E0F640FF61FF61FFA2FF41F740D680A420
:1028D000234104392231A120A220E32865390331A4
:1028E00061208120C3302441E34824D6C0FF80FF0B
:1028F00060FF40FF01FFE1F6E3EE01F700F7C0FEE5
:1029000060F620F640F660FE80F6E2DD47C527ACB3
:1029100065BC82CC80D400ED64CD0AEE92FE99FFB6
:10292000BAFFB7CE73AD8E83654144416441D1B4E3
:102930004FA40752443138CEFFFFFFFFFFFFFFFFD8
:10294000FFFFFFFFFFFFFFFFFFFFFFFFFFFFFFFF97
:10295000FFFFFFFFFFFFFFFFFFFFFFFFFFFFFFFF87
:10296000FFFFFFFFFFFFFFFFFFFFFFFFFFFF2F7CCA
:102970000C538D6B6B9CE5CDA0E680F620FEA0F697
:10298000E0FEA0EEE2FEE2F601F720F760FF81FF35
:1029900081FFC0FF40F7636A0339E3308320A22040
:1029A0008220A220A120A228E230E2382441606ADD
:1029B00003F7C0FF60FF80FF20FFE2F6E2FEE2F6D1
:1029C000E0F6C0FEC0FEC0FEA0FE80EE61E6A8AD4F
:1029D0004C74124B8F428894E6DDE2D442CCC0CCDA
:1029E000A0D400E585E5C5934239043124418649E8
:1029F00065496449E5516020C128A22055B5FFFF13
:102A0000FFFFFFFFFFFFFFFFFFFFFFFFFFFFFFFFD6
:102A1000FFFFFFFFFFFFFFFFFFFFFFFFFFFFFFFFC6
:102A2000FFFFFFFFFFFFFFFFFFFFFFFFFFFFFFFFB6
:102A3000FFFFFFFFCF63AE22D01AF32AB253CD7C43
:102A4000C7BDC0F642EEE1FEA0F6E1FEE4FE03FFE4
:102A5000E1F641FFA0FF00F7A0FF82FF029C2149A1
:102A6000A230C2306118611860186018A128A1282E
:102A70008130234101B581FFA0FF61FF60FF40FF6E
:102A8000C2F6E2FE20FFC0FE82FE81FEA0EE42CE34
:102A900069A5CE8493434F230C13AD22729DDEFFB4
:102AA00039FFD4EEEDDDC3C4A0D4C2CC448BA5491C
:102AB00066416549A75145494441E23802312752F0
:102AC00054B5FFFFFFFFFFFFFFFFFFFFFFFFFFFF0B
:102AD000FFFFFFFFFFFFFFFFFFFFFFFFFFFFFFFF06
:102AE000FFFFFFFFFFFFFFFFFFFFFFFFFFFFFFFFF6
:102AF000FFFFFFFFFFFFFFFFFFFF6D5BEF22912353
:102B0000722351236F23F24BF07C03EEE1FE00FFB2
:102B100000FFE1FE02F7E0EE40FF60FF82FFA0FF52
:102B200081FF42F7E37AE44006410752695A89621D
:102B30004852C54923414349887243F7A0FF80FFAB
:102B400042FF20F720FFC2F6E2FEC2F6E0FEE0FE02
:102B500081EE87BD6E7C9243141B131BB32372233B
:102B60005022D094DFFFFFFFFFF7FFFF79FFB2FE97
:102B700008AC82418631C74103396649C7592341B0
:102B80004341AC8B3BF7FFFFFFFFFFFFFFFFFFFF62
:102B9000FFFFFFFFFFFFFFFFFFFFFFFFFFFFFFFF45
:102BA000FFFFFFFFFFFFFFFFFFFFFFFFFFFFFFFF35
:102BB000FFFFFFFFFFFFFFFFFFFFFFFFFFFFFFFF25
:102BC00079CEA773D03A3313911B9133922B952B67
:102BD000354C318D46CE20F740FFC0FEC0FEE2FEF0
:102BE00080FF60F7A0FF60F7A2FF63DE24A4CDC4DE
:102BF0003AE75DEFFFEEFFF69AEEEBB4C1ACE4E628
:102C000081F780F780FF80FF20FF00FF01FFE2FED9
:102C1000E1FEA1EEEBBD9264F52B1624902B2F3B29
:102C2000531B102B0B53C78B1DE7FDFFFEFFFFFF50
:102C3000FFFFFFFFFFFF108CE32823390339023920
:102C40008439433964494451A65965512C7BDAEEE5
:102C5000FFFFFFFFFFFFFFFFFFFFFFFFFFFFFFFF84
:102C6000FFFFFFFFFFFFFFFFFFFFFFFFFFFFFFFF74
:102C7000FFFFFFFFFFFFFFFFFFFFFFFFFFFFFFFF64
:102C8000FFFFFFFFFFFFFBFFC0D5A4BCCD73123BCE
:102C9000121BB223353CF22B163C754C507509BE05
:102CA000C1F620FFE0EE60FF60FFA0FF80FFC0FFE5
:102CB000A0FFC0F6E4FE4AE68CEE6DEEADF6EBFE4C
:102CC000A4F6E0F6E0FF80FF80FFC0FFA0FF40F722
:102CD00021F7E2F6A2EEEBB5B174F743F42B113C09
:102CE000D343322B521B4F4B4A7C84B523DEFDFF6E
:102CF000FFFFFFFFFFFFFFFFDFFFFFFFFBE6695A5C
:102D0000E2306020C130E228A12881284128C33860
:102D1000C33000108D7BFFFFFFFFFFFFFFFFFFFFB2
:102D2000FFFFFFFFFFFFFFFFFFFFFFFFFFFFFFFFB3
:102D3000FFFFFFFFFFFFFFFFFFFFFFFFFFFFFFFFA3
:102D4000FFFFFFFFFFFFFFFFFFFFFFFFB7FFC0F524
:102D5000A1FDC0DD02AD2C7C924354239333D433C8
:102D6000152C763C9464329551B6709E8CBE6DBE27
:102D70006EBE6CBE89BEE9C609C7A9BE48C648C6B4
:102D800048C628BE69C6CACECACEA9CE8BBE6BB60F
:102D9000ADB68EAE70AE52AEB1A5509D583C573C0C
:102DA000353CF533962B132B6F4B6D7C84C5E2DDE0
:102DB00020EE02F6BDFFDFFFFFFFFDFFDFFFFFFF9D
:102DC000FFFFFFFFBAE6033140180331C230EA7259
:102DD000CE8B48622852E749EB6217C6FFFFFFFF20
:102DE000FFFFFFFFFFFFFFFFFFFFFFFFFFFFFFFFF3
:102DF000FFFFFFFFFFFFFFFFFFFFFFFFFFFFFFFFE3
:102E0000FFFFFFFFFFFFFFFFFFFFFFFFFFFFFFFFD2
:102E1000FFFF79FFC0E5A0ED01F620FEE0F546AD2D
:102E20004F6CB443D3333634373C0F338C3AF353BF
:102E30001B55B74C994C594C7A4CB94CB74CD8549B
:102E4000B84CD95CD85CF754D654D64CD84CB94C55
:102E50009944B95C784CB854B74CB74CB6547133FC
:102E60008D22B32B353C333C753B9353698483BD32
:102E700082E620F6C0F580F580EDBBFFFEFFFFFF88
:102E8000FFFFFFFFFFFFDFFFFFFFFFFF719C6118E8
:102E900061186128EB72BEFFFEFFFEFFFEFFBEF76A
:102EA000FFFFFFFFFFFFFFFFFFFFFFFFFFFFFFFF32
:102EB000FFFFFFFFFFFFFFFFFFFFFFFFFFFFFFFF22
:102EC000FFFFFFFFFFFFFFFFFFFFFFFFFFFFFFFF12
:102ED000FFFFFFFFFFFFFFFFFAF7E2DD82EDC0ED2E
:102EE000E0F521FE60F660E649ADCB745444B7339B
:102EF00009222121AB32783C9444754476449644AF
:102F0000B74C96447744994C55445544954CB64C2F
:102F1000954C55445644784C964C5644974C5644E0
:102F2000554CF34B2C222709EB32934B6F64EA8C00
:102F3000C5CD80FE61FE00F680EDA0F5C0F5C0EDC8
:102F4000DBFFFFFFFFFFDFFFFFFFFFFFFFFFFFFFD5
:102F5000FFFFFFFF919CC2202441C22834ADFFFF38
:102F6000BEF7FFFFFFFFFFFFFFFFFFFFFFFFFFFFBA
:102F7000FFFFFFFFFFFFFFFFFFFFFFFFFFFFFFFF61
:102F8000FFFFFFFFFFFFFFFFFFFFFFFFFFFFFFFF51
:102F9000FFFFFFFFFFFFFFFFFFFFFFFFFFFF7BF7CD
:102FA000C0E5C0F5E0E5E0E502EE40F640FE40FE9B
:102FB00040DE2A85F443F0228D2A73433644964C32
:102FC000754C954C944C934CB44C744C764C954445
:102FD00095449644974C774C5744574C984C7744BB
:102FE0007744974C5644554CF34BED3A6A2A732B71
:102FF000146CA6C540F660FE60F6C4F5A4F5E0EDDD
:10300000E0F5C1EDA3E59DF7BEF7FEFFFDFFFFFF75
:10301000FFFFFFFFBEF7FFFFFFFFDFFF8E736120A3
:103020002010B29CFFFFFFFFDFF7FFFFFFFFFFFF56
:10303000FFFFFFFFFFFFFFFFFFFFFFFFFFFFFFFFA0
:10304000FFFFFFFFFFFFFFFFFFFFFFFFFFFFFFFF90
:10305000FFFFFFFFFFFFFFFFFFFFFFFFFFFFFFFF80
:10306000FFFFFFFF7AFFC0EDA0EDC0E5C0EDE1F589
:1030700020EE41E6C0FD80F6AAAD755C5634753C85
:103080005654145478445744774477447644964CC5
:10309000B74C974C974C774C764C7544754C954C87
:1030A000944C944C9644B64497447744974C774C50
:1030B0005644564C9734B47424DE41FE02FE40EE72
:1030C00001E600EEA0EDA0ED80E5A2E5DCFFFFFF4C
:1030D000FFFFFEFFFFFFFFFFBEF7FFFFBEFFFFFF8B
:1030E000FFFFBEFFEF8B8D7B3CEFBEF7FFFFFFFFC7
:1030F000FFFFDFFFFFFFFFFFFFFFFFFFFFFFFFFF00
:10310000FFFFFFFFFFFFFFFFFFFFFFFFFFFFFFFFCF
:10311000FFFFFFFFFFFFFFFFFFFFFFFFFFFFFFFFBF
:10312000FFFFFFFFFFFFFFFFFFFF59FFA0E580F557
:10313000C0EDA0F5C0F521EE62EE40F6C1EE6BA544
:10314000375C76447344743CD4449454754C754C49
:10315000764C564C364C564C574C574C564C764C3D
:10316000764C5644774C784C374436545654364C4B
:10317000554C764C7544543C7444D52CD27460DE66
:1031800060FE01EEA0EE23EEC0EDA2F5A0F5A0EDED
:10319000A0E5BDFFFFFFFFFFFFFFFFFFFFFFFFFFFA
:1031A000FFFFFFFFDFFFDFFFFFFFFFFF9EF7FFFFD8
:1031B000FFFFFFFFFFFFFFFFFFFFFFFFFFFFFFFF1F
:1031C000FFFFFFFFFFFFFFFFFFFFFFFFFFFFFFFF0F
:1031D000FFFFFFFFFFFFFFFFFFFFFFFFFFFFFFFFFF
:1031E000FFFFFFFFFFFFFFFFFFFFFFFFFFFFFFFFEF
:1031F000D8FF62DDA0F5A0F5C1EDA0ED02F661E615
:1032000040F680FEC5B5364CB4343544154C5734C1
:10321000353C353C5544553CD754964C964CB654A9
:103220007664B65CB64C754C9664775C764CB74465
:10323000B754764C3544353C354455445544554493
:103240007734336C80E620FE40FE22EEE1EDA0F5FF
:10325000C1EDC1F580E5C3DD7BFFFFFFFFF7FEFF9A
:10326000FFFFFFFFFFFFFFFFFFFFFFFFFFFFFFFF6E
:10327000FFFFFFFFFFFFFFFFFFFFFFFFFFFFFFFF5E
:10328000FFFFFFFFFFFFFFFFFFFFFFFFFFFFFFFF4E
:10329000FFFFFFFFFFFFFFFFFFFFFFFFFFFFFFFF3E
:1032A000FFFFFFFFFFFFFFFFFFFFFFFFFFFFFFFF2E
:1032B000FFFFFFFFFFFF99FF64DDA0F580EDA0EDAC
:1032C00080F5A0F500EE20E680F6A7BD174C55343A
:1032D000F54BF453153C353C353C353C353C964C70
:1032E000754C964CB654F343CF228E226D1A0F2B99
:1032F000754CB754764C964C5544143C143C353CB4
:1033000035443544353C7534726CA0DE40F620F609
:1033100000E6E0E5C0F580F580FD60F5A3E57AFF05
:10332000DFFFBFFFDFFFFFFFFFFFFFFFFFFFFFFF2D
:10333000FFFFFFFFFFFFFFFFFFFFFFFFFFFFFFFF9D
:10334000FFFFFFFFFFFFFFFFFFFFFFFFFFFFFFFF8D
:10335000FFFFFFFFFFFFFFFFFFFFFFFFFFFFFFFF7D
:10336000FFFFFFFFFFFFFFFFFFFFFFFFFFFFFFFF6D
:10337000FFFFFFFFFFFFFFFFFFFFFFFFB7FF65D569
:10338000C0EDC0EDE0ED00F6E0F520F660F6A0FE41
:10339000C8BD15543434F443144474343544153CD6
:1033A000143C153C764C554496541444AB09AA0180
:1033B000544CB13B48014D1AF443B64C764C55443D
:1033C000153C143C143C153C153C143CF43B317446
:1033D00082DE60FE60F600EEC1EDA0F5E0F5C1F51D
:1033E00082E586D5DBFFFEFFFFFFFFFFFFFFFFFF4C
:1033F000FFFFFFFFFFFFFFFFFFFFFFFFFFFFFFFFDD
:10340000FFFFFFFFFFFFFFFFFFFFFFFFFFFFFFFFCC
:10341000FFFFFFFFFFFFFFFFFFFFFFFFFFFFFFFFBC
:10342000FFFFFFFFFFFFFFFFFFFFFFFFFFFFFFFFAC
:10343000FFFFFFFFFFFFFFFFFFFFFFFFFFFFFFFF9C
:10344000FFFF3EE78E94EBA44AAD68B5A8BDC7C5A3
:1034500006C6E5CD04D62A9D144CF32BB433B53300
:10346000F623143CF43BD333F43B35443544354424
:10347000F01AEB21D24B6F2BB13BEF3A8A1130336C
:10348000554455443544143CF43BF43BF43BF43B85
:10349000D433F34B1074A5C5C3D5E4D5A6C567C511
:1034A00047CD2BA52EA5AE9C2F9DFFFFFFFFFFFF55
:1034B000FFFFFFFFFFFFFFFFFFFFFFFFFFFFFFFF1C
:1034C000FFFFFFFFFFFFFFFFFFFFFFFFFFFFFFFF0C
:1034D000FFFFFFFFFFFFFFFFFFFFFFFFFFFFFFFFFC
:1034E000FFFFFFFFFFFFFFFFFFFFFFFFFFFFFFFFEC
:1034F000FFFFFFFFFFFFFFFFFFFFFFFFFFFFFFFFDC
:10350000FFFFFFFFFFFFFFFF5EC71254F34334547A
:10351000D54BD64BF54B1454B253AF5BB04BB633CF
:10352000F333F243B143D13BD333D33BB333B33360
:10353000D33BF33BF33B4D0A7143504328010B1A35
:1035400070438D22EF2AF343F43BD43BD33BD33378
:10355000D333D333B333B333F8239633D14BD1536F
:10356000144C3544554433441344554CD443167DD0
:10357000FFEFFFFFFFFFFFFFFFFFFFFFFFFFFFFF6B
:10358000FFFFFFFFFFFFFFFFFFFFFFFFFFFFFFFF4B
:10359000FFFFFFFFFFFFFFFFFFFFFFFFFFFFFFFF3B
:1035A000FFFFFFFFFFFFFFFFFFFFFFFFFFFFFFFF2B
:1035B000FFFFFFFFFFFFFFFFFFFFFFFFFFFFFFFF1B
:1035C000FFFFFFFFFFFFFFFFFFFFFFFFFFFFFEE724
:1035D000955CF433353CB433D52BF32BD12B352B01
:1035E00010233123D433F333F33B943BB53BB33354
:1035F000F43BF43BB233B233B33BF343EF22CA1193
:10360000503BCE2A503BEF32EB111033D33BB33358
:10361000B333D333D33BD43BD43BD43BF43B13340D
:10362000922B102B112B942BD523F62BD523F32380
:10363000342CB32B9885FFF7FDFFFDFFFEFFFFFF46
:10364000FFFFFFFFFFFFFFFFFFFFFFFFFFFFFFFF8A
:10365000FFFFFFFFFFFFFFFFFFFFFFFFFFFFFFFF7A
:10366000FFFFFFFFFFFFFFFFFFFFFFFFFFFFFFFF6A
:10367000FFFFFFFFFFFFFFFFFFFFFFFFFFFFFFFF5A
:10368000FFFFFFFFFFFFFFFFFFFFFFFFFFFFFFFF4A
:10369000FFFFFFFFDEFFB87C7433B33B933BD533B2
:1036A000F43393335333102B302BD23BD233F233DA
:1036B000D433F533D33BD33BF43BB2339233923321
:1036C000D33B72338A19A90170332F2B28010C22A6
:1036D0009243F3339233B333B333D33BD33BD33B34
:1036E000D43BD43BB2336F33EF222F2B9133B13322
:1036F000D433B433D433F333933B5BAEDFFFDEFF1D
:10370000DFFFFFFFFFFFFFFFFFFFFFFFFFFFFFFFE9
:10371000FFFFFFFFFFFFFFFFFFFFFFFFFFFFFFFFB9
:10372000FFFFFFFFFFFFFFFFFFFFFFFFFFFFFFFFA9
:10373000FFFFFFFFFFFFFFFFFFFFFFFFFFFFFFFF99
:10374000FFFFFFFFFFFFFFFFFFFFFFFFFFFFFFFF89
:10375000FFFFFFFFFFFFFFFFFFFFFEFF7B95D43B57
:10376000AF33D03BD233B22B322B10230F23112B8C
:10377000923B523391337333722BB333522B9233C8
:10378000722B7133312B51335133513B6D220B125C
:103790002C1AAE2230335133512B522B722B9333D0
:1037A00093339233722B722B922BB12B902BD21A14
:1037B0001023502B4F2BB23BB24374439243B3536D
:1037C0001ED7DFFFDEFFFFFFFFEFFFFFFFFFFFFF63
:1037D000FFFFFFFFFFFFFFFFFFFFFFFFFFFFFFFFF9
:1037E000FFFFFFFFFFFFFFFFFFFFFFFFFFFFFFFFE9
:1037F000FFFFFFFFFFFFFFFFFFFFFFFFFFFFFFFFD9
:10380000FFFFFFFFFFFFFFFFFFFFFFFFFFFFFFFFC8
:10381000FFFFFFFFFFFFFFFFFFFFFFFFFFFFFFFFB8
:10382000FFFFDCCEB0532F3313443123512B112B28
:10383000CF22102B51335133512B512B512B512B64
:10384000512B512B512B502B502B302B302B302BFD
:10385000512B512B512B512B512B512B512B512B88
:10386000512B512B512B512B512B512B512B512B78
:10387000512B512B102BCF220F2B503371339133FF
:10388000B1430F3B537CDFFFFFFFBEFFFFFFFFFF96
:10389000FFFFFFFFFFFFFFFFFFFFFFFFFFFFFFFF38
:1038A000FFFFFFFFFFFFFFFFFFFFFFFFFFFFFFFF28
:1038B000FFFFFFFFFFFFFFFFFFFFFFFFFFFFFFFF18
:1038C000FFFFFFFFFFFFFFFFFFFFFFFFFFFFFFFF08
:1038D000FFFFFFFFFFFFFFFFFFFFFFFFFFFFFFFFF8
:1038E000FFFFFFFFFFFFFFFFFFF77374704391338C
:1038F0007133312BD022EF22302B512B512B512BF6
:10390000512B512B502B713371337133712B712B20
:10391000712B512B512B502B502B502B502B502BAC
:10392000502B502B502B512B512B512B512B512BBA
:10393000512B712B7133312B92335133CF22CE1A4D
:10394000102B502B502B91432F4339B6FFFFDFFF35
:10395000DFFFFFFFFFFFFFFFFFFFFFFFFFFFFFFF97
:10396000FFFFFFFFFFFFFFFFFFFFFFFFFFFFFFFF67
:10397000FFFFFFFFFFFFFFFFFFFFFFFFFFFFFFFF57
:10398000FFFFFFFFFFFFFFFFFFFFFFFFFFFFFFFF47
:10399000FFFFFFFFFFFFFFFFFFFFFFFFFFFFFFFF37
:1039A000FFFFFFFFFFFFFFFFFFFFFFFFDEFFFFFF48
:1039B0009ABE4F43703BB23B112BF022302B512B60
:1039C000512B512B502B512B512B3023502B502B43
:1039D000502B302B302B302B302B302B512B512BAD
:1039E000512B512B512B512B512B512B502B302B19
:1039F000302B302B302B502B512B712B302B102B8D
:103A0000512B513310233023713371330E3B526CE1
:103A1000BFEFFFFFFFFFFFFFFFFFFFFFFFFFFFFF06
:103A2000FFFFFFFFFFFFFFFFFFFFFFFFFFFFFFFFA6
:103A3000FFFFFFFFFFFFFFFFFFFFFFFFFFFFFFFF96
:103A4000FFFFFFFFFFFFFFFFFFFFFFFFFFFFFFFF86
:103A5000FFFFFFFFFFFFFFFFFFFFFFFFFFFFFFFF76
:103A6000FFFFFFFFFFFFFFFFFFFFFFFFFFFFFFFF66
:103A7000FFFFFFFFFFFFFFF7368DCD32914351333C
:103A80005133512B512B502B3023302330233023F3
:103A900030230F230F230F230F230F230F230F2375
:103AA0000F2310231023102310231023102310237F
:103AB0001023102310230F230F230F231023102371
:103AC000302B302BEF22302B7233312B512B923B8A
:103AD000713B6F535ABEFFFFDFFFFFFFFFFFFFFF8A
:103AE000FFFFFFFFFFFFFFFFFFFFFFFFFFFFFFFFE6
:103AF000FFFFFFFFFFFFFFFFFFFFFFFFFFFFFFFFD6
:103B0000FFFFFFFFFFFFFFFFFFFFFFFFFFFFFFFFC5
:103B1000FFFFFFFFFFFFFFFFFFFFFFFFFFFFFFFFB5
:103B2000FFFFFFFFFFFFFFFFFFFFFFFFFFFFFFFFA5
:103B3000FFFFFFFFFFFFFFFFFFFFFFFFFFFF7EE72E
:103B4000126CEE3AD24B713B712B512B30230F2369
:103B5000EF1A0F230F230F1BEF22EF22EF22EF228A
:103B6000EF220F230F230F23EF22EF22EF22EF226A
:103B7000EF22EF22EF22EF22EF22EF22EF22EF22BD
:103B8000EF22EF22EF22EF220F2B102B102B302BE6
:103B90005133713B503B2F3B969DFFF7FFFFDFFFFB
:103BA000FFFFFFFFFFFFFFFFFFFFFFFFFFFFFFFF25
:103BB000FFFFFFFFFFFFFFFFFFFFFFFFFFFFFFFF15
:103BC000FFFFFFFFFFFFFFFFFFFFFFFFFFFFFFFF05
:103BD000FFFFFFFFFFFFFFFFFFFFFFFFFFFFFFFFF5
:103BE000FFFFFFFFFFFFFFFFFFFFFFFFFFFFFFFFE5
:103BF000FFFFFFFFFFFFFFFFFFFFFFFFFFFFFFFFD5
:103C0000FFFFFFFFFFFF1CD7126C2E430E33513313
:103C10005133302B0F23EF22EF220F23EF1AEF2225
:103C2000EF22EF22EF22EF22EF22EF220F230F23CA
:103C30000F230F230F230F230F230F230F23EF2215
:103C4000EF220F230F230F23EF22EF22EF22CE22AA
:103C5000102310235133713BCE324F4BF58CBEEF06
:103C6000FFFFFFFFFFFFDFFFFFFFFFFFFFFFFFFF84
:103C7000FFFFFFFFFFFFFFFFFFFFFFFFFFFFFFFF54
:103C8000FFFFFFFFFFFFFFFFFFFFFFFFFFFFFFFF44
:103C9000FFFFFFFFFFFFFFFFFFFFFFFFFFFFFFFF34
:103CA000FFFFFFFFFFFFFFFFFFFFFFFFFFFFFFFF24
:103CB000FFFFFFFFFFFFFFFFFFFFFFFFFFFFFFFF14
:103CC000FFFFFFFFFFF7FFFFDEFFFFFFFFFFDCD679
:103CD000116C6F4B51337133713330330F2B0F2312
:103CE000EF22EF22EF1AEF1AEF22EF22EF22EF225C
:103CF000EF22EF22EF22EF22EF22EF22EF22EF223C
:103D0000EF22EF220F230F230F230F230F230F2365
:103D1000102310230F23302B71337133303B70533A
:103D2000569DBEF7FFFFFFFFFFFFFFFFDFFFFFFF17
:103D3000FFFFFFFFFFFFFFFFFFFFFFFFFFFFFFFF93
:103D4000FFFFFFFFFFFFFFFFFFFFFFFFFFFFFFFF83
:103D5000FFFFFFFFFFFFFFFFFFFFFFFFFFFFFFFF73
:103D6000FFFFFFFFFFFFFFFFFFFFFFFFFFFFFFFF63
:103D7000FFFFFFFFFFFFFFFFFFFFFFFFFFFFFFFF53
:103D8000FFFFFFFFFFFFFFFFFFFFFFF7FFF7FFFF53
:103D9000FFFFDFFFFFFFBFE7F4845133713B923B2E
:103DA000713B3033102BEF22CF22EF22EF22EF2294
:103DB000EF220F230F230F231023EF22EF22EF22F6
:103DC000EF22EF22EF22EF22EF220F23EF22EF224A
:103DD000EF22EF220F231023102371339133B23BD4
:103DE0005133D25319AEFFFFFEFFFEFFFFFFFFFF6F
:103DF000DFFFFFFFDFFFFFFFDFFFFFFFFFFFFFFF33
:103E0000FFFFFFFFFFFFFFFFFFFFFFFFFFFFFFFFC2
:103E1000FFFFFFFFFFFFFFFFFFFFFFFFFFFFFFFFB2
:103E2000FFFFFFFFFFFFFFFFFFFFFFFFFFFFFFFFA2
:103E3000FFFFFFFFFFFFFFFFFFFFFFFFFFFFFFFF92
:103E4000FFFFFFFFFFFFFFFFFFFFFFFFFFFFFFFF82
:103E5000FFFFFFFFFFFFFFFFFFFFFFFFFFFFFFFF72
:103E600038CE8F630E3BD24B903B4F3B0F3B0F3313
:103E7000EF32EE2AEE2AEE22EE22EF22EF2ACF2AAE
:103E8000AE22EF2AEE22EE22CE220E2BED2ACC2AF3
:103E9000CE2AEE2ACE2ACE2A2F335033503B913BE6
:103EA0009143914BED4A92849DE7FFFFFFFFDFFFB7
:103EB000FFFFFFFFFFFFFFFFFFFFFFFFFFFFFFFF12
:103EC000FFFFFFFFFFFFFFFFFFFFFFFFFFFFFFFF02
:103ED000FFFFFFFFFFFFFFFFFFFFFFFFFFFFFFFFF2
:103EE000FFFFFFFFFFFFFFFFFFFFFFFFFFFFFFFFE2
:103EF000FFFFFFFFFFFFFFFFFFFFFFFFFFFFFFFFD2
:103F0000FFFFFFFFFFFFFFFFFFFFFFFFFFFFFFFFC1
:103F1000FFFFFFFFFFFFFFFFFFFFFFFFFFFFFFFFB1
:103F2000FFFFFFFFFFFF9DFF96A5AC32503B904384
:103F3000B143904390435043503B50334F332F3362
:103F40000F2B0F2B0F333033302B0F2B302B0F2B2E
:103F5000CE220E2B4F330F332F3B2F3B503B914341
:103F6000B1439143B143B143EE3AAC42DBCEFFFFE4
:103F7000FEF7FFFFDFFFFFFFFFFFFFFFFFFFFFFF7A
:103F8000FFFFFFFFFFFFFFFFFFFFFFFFFFFFFFFF41
:103F9000FFFFFFFFFFFFFFFFFFFFFFFFFFFFFFFF31
:103FA000FFFFFFFFFFFFFFFFFFFFFFFFFFFFFFFF21
:103FB000FFFFFFFFFFFFFFFFFFFFFFFFFFFFFFFF11
:103FC000FFFFFFFFFFFFFFFFFFFFFFFFFFFFFFFF01
:103FD000FFFFFFFFFFFFFFFFFFFFFFFFFFFFFFFFF1
:103FE000FFFFFFFFFFFFFFFFFFFFFFFFFFFF7EE77A
:103FF0000D43AD2A0E332F3B2F3B503B7043904374
:10400000B143B143B04390439143914371432F3344
:10401000703B503BB243913B9143B143B143B143F9
:104020009043704370434F3B0E330E330E336C2A74
:10403000327CFFFFFFFFFFFFFFFFDFFFFFFFFFFF00
:10404000FFFFFFFFFFFFFFFFFFFFFFFFFFFFFFFF80
:10405000FFFFFFFFFFFFFFFFFFFFFFFFFFFFFFFF70
:10406000FFFFFFFFFFFFFFFFFFFFFFFFFFFFFFFF60
:10407000FFFFFFFFFFFFFFFFFFFFFFFFFFFFFFFF50
:10408000FFFFFFFFFFFFFFFFFFFFFFFFFFFFFFFF40
:10409000FFFFFFFFFFFFFFFFFFFFFFFFFFFFFFFF30
:1040A000FFFFFFFFFFFFFFFFFFFFFFFFFFFFFFFF20
:1040B000FFFFFFFFFFFFD4848C32ED320E33EE2A78
:1040C0000F33EE3A0E3B0E332F334F3B6F434F43CC
:1040D0002F430E436F5372742E432F43304350438C
:1040E0004F3B4F3B2F3B0E3B0E3B0E3B0E3BEE320E
:1040F000EE32ED2AAC3ABCD6FFFFDFFFFFFFFFFF39
:10410000FFFFFFFFFFFFFFFFFFFFFFFFFFFFFFFFBF
:10411000FFFFFFFFFFFFFFFFFFFFFFFFFFFFFFFFAF
:10412000FFFFFFFFFFFFFFFFFFFFFFFFFFFFFFFF9F
:10413000FFFFFFFFFFFFFFFFFFFFFFFFFFFFFFFF8F
:10414000FFFFFFFFFFFFFFFFFFFFFFFFFFFFFFFF7F
:10415000FFFFFFFFFFFFFFFFFFFFFFFFFFFFFFFF6F
:10416000FFFFFFFFFFFFFFFFFFFFFFFFFFFFFFFF5F
:10417000FFFFFFFFFFFFFFFFDFFFFFFFFCD60D4349
:104180000E3B9143503B503B0F3BEE32CD2ACD2AA4
:10419000ED2AED32AC324B2A09320C53D28C8942D3
:1041A00009324C328C32CC32CD2ACD2ACD32EE328D
:1041B0002F3B4F43904390430D33116CFFFFBFFFE4
:1041C000FFFFFFFFDFFFFFFFFFFFFFFFFFFFFFFF1F
:1041D000FFFFFFFFFFFFFFFFFFFFFFFFFFFFFFFFEF
:1041E000FFFFFFFFFFFFFFFFFFFFFFFFFFFFFFFFDF
:1041F000FFFFFFFFFFFFFFFFFFFFFFFFFFFFFFFFCF
:10420000FFFFFFFFFFFFFFFFFFFFFFFFFFFFFFFFBE
:10421000FFFFFFFFFFFFFFFFFFFFFFFFFFFFFFFFAE
:10422000FFFFFFFFFFFFFFFFFFFFFFFFFFFFFFFF9E
:10423000FFFFFFFFFFFFFFFFFFFFFFFFFFFFFFFF8E
:10424000FFFFFFFF31740E3B91439143B14B91430C
:1042500070432F33ED2AED2AED32AC2A2B22C731E1
:104260004742EC73C531C7296C3AAC32CC32EE32DE
:10427000EE322F3B70437043904390437043AB3218
:10428000F8B5FFFFDEFFFFFFFFFFFFFFDFFFFFFFD0
:10429000FFFFFFFFFFFFFFFFFFFFFFFFFFFFFFFF2E
:1042A000FFFFFFFFFFFFFFFFFFFFFFFFFFFFFFFF1E
:1042B000FFFFFFFFFFFFFFFFFFFFFFFFFFFFFFFF0E
:1042C000FFFFFFFFFFFFFFFFFFFFFFFFFFFFFFFFFE
:1042D000FFFFFFFFFFFFFFFFFFFFFFFFFFFFFFFFEE
:1042E000FFFFFFFFFFFFFFFFFFFFFFFFFFFFFFFFDE
:1042F000FFFFFFFFFFFFFFFFFFFFFFFFFFFFFFFFCE
:10430000FFFFFFFFFFFFDFFFFFFF39B62E432F3B0D
:10431000714391439143913B2F33EE2AED2AED32C5
:10432000CD328C2A2932473AAB63E53129328D32BE
:10433000CE32ED2AEE2AEE32503B91439143914327
:1043400070432F3B6E5B7EE7DFFFFFFFDEFFFFFF6B
:10435000FFFFDFFFFFFFFFFFFFFFFFFFFFFFFFFF8D
:10436000FFFFFFFFFFFFFFFFFFFFFFFFFFFFFFFF5D
:10437000FFFFFFFFFFFFFFFFFFFFFFFFFFFFFFFF4D
:10438000FFFFFFFFFFFFFFFFFFFFFFFFFFFFFFFF3D
:10439000FFFFFFFFFFFFFFFFFFFFFFFFFFFFFFFF2D
:1043A000FFFFFFFFFFFFFFFFFFFFFFFFFFFFFFFF1D
:1043B000FFFFFFFFFFFFFFFFFFFFFFFFFFFFFFFF0D
:1043C000FFFFFFFFFFFFFFFFFFFFFFFFFFFFFFFFFD
:1043D000FFF7F15B7043B2437143713B713B303384
:1043E000EE2ACD22CD2AED32CD328B32A93A8B5B2B
:1043F0004732AC3ACF32F02A0F1BCE2AEE2A503386
:10440000914391439143713B303397A5FFFFFFFFE9
:10441000FFFFFFFFFFFFFFFFDFFFFFFFFFFFFFFFCC
:10442000FFFFFFFFFFFFFFFFFFFFFFFFFFFFFFFF9C
:10443000FFFFFFFFFFFFFFFFFFFFFFFFFFFFFFFF8C
:10444000FFFFFFFFFFFFFFFFFFFFFFFFFFFFFFFF7C
:10445000FFFFFFFFFFFFFFFFFFFFFFFFFFFFFFFF6C
:10446000FFFFFFFFFFFFFFFFFFFFFFFFFFFFFFFF5C
:10447000FFFFFFFFFFFFFFFFFFFFFFFFFFFFFFFF4C
:10448000FFFFFFFFFFFFFFFFFFFFFFFFFFFFFFFF3C
:10449000FFF7FFF7FFFFFEFFB18CCA424D436E43AB
:1044A000703B4F3B0E2BED320D33CD2AEC328B227D
:1044B000293ACB4A359529228B2ACC32CC32CD32BF
:1044C0000E2B0E2B0E332F3B6F436F432E3BAC3224
:1044D00017CEBEFFFFFFFFFFFFFFFFFFFFFFFFFF46
:1044E000FFFFFFFFFFFFFFFFFFFFFFFFFFFFFFFFDC
:1044F000FFFFFFFFFFFFFFFFFFFFFFFFFFFFFFFFCC
:10450000FFFFFFFFFFFFFFFFFFFFFFFFFFFFFFFFBB
:10451000FFFFFFFFFFFFFFFFFFFFFFFFFFFFFFFFAB
:10452000FFFFFFFFFFFFFFFFFFFFFFFFFFFFFFFF9B
:10453000FFFFFFFFFFFFFFFFFFFFFFFFFFFFFFFF8B
:10454000FFFFFFFFFFFFFFFFFFFFFFFFFFFFFFFF7B
:10455000FFFFFFFFFFFFFFFFDFFFFBF6AE8B864194
:10456000A74147292A42A84187396739C849C8491C
:10457000864187414539A21869529AD604192521E6
:10458000A7318731C83967398739A841A841A84977
:10459000A849A7496641E74954BD9EFFFFFFFFFFB9
:1045A000BEF7FFFFFFFFFFFFFFFFFFFFFFFFFFFF64
:1045B000FFFFFFFFFFFFFFFFFFFFFFFFFFFFFFFF0B
:1045C000FFFFFFFFFFFFFFFFFFFFFFFFFFFFFFFFFB
:1045D000FFFFFFFFFFFFFFFFFFFFFFFFFFFFFFFFEB
:1045E000FFFFFFFFFFFFFFFFFFFFFFFFFFFFFFFFDB
:1045F000FFFFFFFFFFFFFFFFFFFFFFFFFFFFFFFFCB
:10460000FFFFFFFFFFFFFFFFFFFFFFFFFFFFFFFFBA
:10461000FFFFFFFFFFFFFFFFFFFFFFFFDFFF96C56D
:10462000496A455145516759A859685165516551C5
:1046300065512449E24003494449A238A120E74991
:1046400017CE6018E330C23044494449034924512D
:10465000445144514551455165516551043986498C
:104660002C7BFBEEFFFFBEF7FFFFFFFFFFFFFFFF0F
:10467000FFFFFFFFFFFFFFFFFFFFFFFFFFFFFFFF4A
:10468000FFFFFFFFFFFFFFFFFFFFFFFFFFFFFFFF3A
:10469000FFFFFFFFFFFFFFFFFFFFFFFFFFFFFFFF2A
:1046A000FFFFFFFFFFFFFFFFFFFFFFFFFFFFFFFF1A
:1046B000FFFFFFFFFFFFFFFFFFFFFFFFFFFFFFFF0A
:1046C000FFFFFFFFFFFFFFFFFFFFFFFFFFFFFFFFFA
:1046D000FFFFFFFFFFFFFFFFFFFFFFFFFFFFFFFFEA
:1046E000FFFF17CEC6490339A651A651A75946491F
:1046F0008751A6518549854985496441444103391B
:10470000A1284010E74117CE8118A1288128024135
:104710000249644984498549A551A651C651C651EB
:10472000A649C75965490439CB6A1BEFFFFFFFFF54
:10473000FFFFFFFFFFFFFFFFFFFFFFFFFFFFFFFF89
:10474000FFFFFFFFFFFFFFFFFFFFFFFFFFFFFFFF79
:10475000FFFFFFFFFFFFFFFFFFFFFFFFFFFFFFFF69
:10476000FFFFFFFFFFFFFFFFFFFFFFFFFFFFFFFF59
:10477000FFFFFFFFFFFFFFFFFFFFFFFFFFFFFFFF49
:10478000FFFFFFFFFFFFFFFFFFFFFFFFFFFFFFFF39
:10479000FFFFFFFFFFFFFFFFFFFFFFFFFFFFFFFF29
:1047A000FFFFFFFFFFFFFFFFCA624431E651C65122
:1047B0006441A6516549C751A649854965412439D7
:1047C0002439E330812061182108CB629AD603296D
:1047D0000008C22880200239444144416549854986
:1047E000A649A649864986494551C659C651C32896
:1047F000B29CFFFFFFFFDFF7FFFFFFFFFFFFFFFFA1
:10480000FFFFFFFFFFFFFFFFFFFFFFFFFFFFFFFFB8
:10481000FFFFFFFFFFFFFFFFFFFFFFFFFFFFFFFFA8
:10482000FFFFFFFFFFFFFFFFFFFFFFFFFFFFFFFF98
:10483000FFFFFFFFFFFFFFFFFFFFFFFFFFFFFFFF88
:10484000FFFFFFFFFFFFFFFFFFFFFFFFFFFFFFFF78
:10485000FFFFFFFFFFFFFFFFFFFFFFFFFFFFFFFF68
:10486000FFFFFFFFFFFFFFFFFFFFFFFFFFFFE6511F
:1048700003390339654185498549C651444164413D
:104880000339E2300331E3306018601865398F83F3
:10489000FDEEDFFFD7BD4D73A2206118A220C2300C
:1048A000E2300339444144414541654985498551D8
:1048B00045410339C228108CFFFFFFFFFFFFFFFFB8
:1048C000FFFFFFFFFFFFFFFFFFFFFFFFFFFFFFFFF8
:1048D000FFFFFFFFFFFFFFFFFFFFFFFFFFFFFFFFE8
:1048E000FFFFFFFFFFFFFFFFFFFFFFFFFFFFFFFFD8
:1048F000FFFFFFFFFFFFFFFFFFFFFFFFFFFFFFFFC8
:10490000FFFFFFFFFFFFFFFFFFFFFFFFFFFFFFFFB7
:10491000FFFFFFFFFFFFFFFFFFFFFFFFFFFFFFFFA7
:10492000FFFFFFFFFFFFFFFFFFFFFFFFFFFFFFFF97
:10493000FFFFFFFFAE8B61208228C228E3300339DE
:104940008128E230C1288020C128A12020086010E1
:104950004C6B3CEFFFFF9EF7FFFFFFFFDEFFF7C54D
:10496000C6412010A220A1208120A128C228C2284F
:10497000E2302339C228233140188118F7C5DFFF00
:10498000DFFFFFFFFFFFFFFFFFFFFFFFFFFFFFFF57
:10499000FFFFFFFFFFFFFFFFFFFFFFFFFFFFFFFF27
:1049A000FFFFFFFFFFFFFFFFFFFFFFFFFFFFFFFF17
:1049B000FFFFFFFFFFFFFFFFFFFFFFFFFFFFFFFF07
:1049C000FFFFFFFFFFFFFFFFFFFFFFFFFFFFFFFFF7
:1049D000FFFFFFFFFFFFFFFFFFFFFFFFFFFFFFFFE7
:1049E000FFFFFFFFFFFFFFFFFFFFFFFFFFFFFFFFD7
:1049F000FFFFFFFFFFFFFFFFFFFF9DFFCE8324317F
:104A0000611861182018602020182018601861189B
:104A100061186952D6BD9EF7FFFFFEF7FFFFFEF754
:104A2000FFF7FFFFFFFF3BEF919C2529A3204110DB
:104A30004118411841204020402060186018A541CD
:104A400074B5FFFFDEFFFFFFFFFFFFFFFFFFFFFF6C
:104A5000FFFFFFFFFFFFFFFFFFFFFFFFFFFFFFFF66
:104A6000FFFFFFFFFFFFFFFFFFFFFFFFFFFFFFFF56
:104A7000FFFFFFFFFFFFFFFFFFFFFFFFFFFFFFFF46
:104A8000FFFFFFFFFFFFFFFFFFFFFFFFFFFFFFFF36
:104A9000FFFFFFFFFFFFFFFFFFFFFFFFFFFFFFFF26
:104AA000FFFFFFFFFFFFFFFFFFFFFFFFFFFFFFFF16
:104AB000FFFFFFFFFFFFFFFFFFFFFFFFFFFFFFFF06
:104AC000FFFFDFFF1CEFD7C53094CB6A895A695AC4
:104AD000895A895AEF8358CEFFFFFFFFFFFFFFFF80
:104AE000FFFFFFFFFFFFFFFFFFFFFFFFFFFFFFFFD6
:104AF0007CF795BD4C73895A895A685AA9620B6B29
:104B000013A558CE9DF7FFFFFFFFFFFFFFFFFFFF3D
:104B1000FFFFFFFFFFFFFFFFFFFFFFFFFFFFFFFFA5
:104B2000FFFFFFFFFFFFFFFFFFFFFFFFFFFFFFFF95
:104B3000FFFFFFFFFFFFFFFFFFFFFFFFFFFFFFFF85
:104B4000FFFFFFFFFFFFFFFFFFFFFFFFFFFFFFFF75
:104B5000FFFFFFFFFFFFFFFFFFFFFFFFFFFFFFFF65
:104B6000FFFFFFFFFFFFFFFFFFFFFFFFFFFFFFFF55
:104B7000FFFFFFFFFFFFFFFFFFFFFFFFFFFFFFFF45
:104B8000FFFFFFFFFFFFFFFFFFFFFFFFFFFFFFFF35
:104B9000FFFFFFFFFFFFFFFFFFFFFFFFFFFFFFFF25
:104BA000FFFFFFFFFFFFFFFFFFFFFFFFFFFFFFFF15
:104BB000FFFFFFFFFFFFFFFFFFFFDFFFFFFFFFFF25
:104BC000FFFFFFFFFFFFDFFFFFFFFFFFFFFFFFFF15
:104BD000FFFFFFFFFFFFFFFFFFFFFFFFFFFFFFFFE5
:104BE000FFFFFFFFFFFFFFFFFFFFFFFFFFFFFFFFD5
:104BF000FFFFFFFFFFFFFFFFFFFFFFFFFFFFFFFFC5
:104C0000FFFFFFFFFFFFFFFFFFFFFFFFFFFFFFFFB4
:104C1000FFFFFFFFFFFFFFFFFFFFFFFFFFFFFFFFA4
:104C2000FFFFFFFFFFFFFFFFFFFFFFFFFFFFFFFF94
:104C3000FFFFFFFFFFFFFFFFFFFFFFFFFFFFFFFF84
:104C4000FFFFFFFFFFFFFFFFFFFFFFFFFFFFFFFF74
:104C5000FFFFFFFFFFFFFFFFFFFFFFFFFFFFFFFF64
:104C6000FFFFFFFFFFFFFFFFFFFFFFFFFFFFFFFF54
:104C7000FFFFFFFFFFFFFFFFFFFFFFFFFFFFFFFF44
:104C8000DFFFFFFFFFFFFFFFFFFFFFFFDFFFFFFF74
:104C9000FFFFFFFFFFFFFFFFFFFFFFFFFFFFFFFF24
:104CA000FFFFFFFFFFFFFFFFFFFFFFFFFFFFFFFF14
:104CB000FFFFFFFFFFFFFFFFFFFFFFFFFFFFFFFF04
:104CC000FFFFFFFFFFFFFFFFFFFFFFFFFFFFFFFFF4
:104CD000FFFF0000FFFFFFFFFFFFFFFFFFFFFFFFE2
:104CE000FFFFFFFFFFFFFFFFFFFFFFFFFFFFFFFFD4
:104CF000FFFFFFFFFFFFFFFFFFFFFFFFFFFFFFFFC4
:104D0000FFFFFFFFFFFFFFFFFFFFFFFFFFFFFFFFB3
:104D1000FFFFFFFFFFFFFFFFFFFFFFFFFFFFFFFFA3
:104D2000FFFFFFFFFDFFFEFFFFFFFFFFFFFFFFFF96
:104D3000FFFFFFFFFEFFFEFFFFFFFFFFFFFFFFFF85
:104D4000FFFFFFFFFFFFFFFFFFFFFFFFFFFFFFFF73
:104D5000DFFFFFFFFFFFFFFFFFFFFFFFFFFFFFFF83
:104D6000FFFFFFFFFFFFFFFFFFFFFFFFFFFFFFFF53
:104D7000FFFFFFFFFFFFFFFFFFFFFFFFFFFFFFFF43
:104D8000FFFFFFFFFFFFFFFFFFFFFFFFFFFFFFFF33
:104D9000FFFFFFFFFFFFFFFFFFFFFFFFFFFFFFFF23
:104DA000FFFFFFFFFFFFFFFFFFFFFFFFFFFFFFFF13
:104DB000FFFFFFFFFFFFFFFFFFFFFFFFFFFFFFFF03
:104DC000FFFFFFFFFFFFFFFFFFFFFFFFFFFFFFFFF3
:104DD000FFFFFFFFFFFFFFFFFFFFFFFFDFFFFFFF03
:104DE000FFFFFFFFFFFFFFFFFFFFDEFFFFFFFFFFF4
:104DF000DFFFFFFFFFFFFFFFFFFFFFFFFFFFFFFFE3
:104E0000FFFFFFFFFEFFFEFFFEFFFFFFFFFFFFFFB5
:104E1000FFFFFFFFFFFFFFFFFFFFFFFFFFFFFFFFA2
:104E2000FFFFFFFFFFFFFFFFFFFFFFFFFFFFFFFF92
:104E3000FFFFFFFFFFFFFFFFFFFFFFFFFFFFFFFF82
:104E4000FFFFFFFFFFFFFFFFFFFFFFFFFFFFFFFF72
:104E5000FFFFFFFFFFFFFFFFFFFFFFFFFFFFFFFF62
:104E6000FFFFFFFFFFFFFFFFFFFFFFFFFFFFFFFF52
:104E7000FFFFFFFFFFFFFFFFFFFFFFFFFFFFFFFF42
:104E8000FFFFFFFFFFFFFFFFFFFFFFFFFFFFFFFF32
:104E9000FFFFFFFFFFFFFFFFFFFFFFFFFFFFFFFF22
:104EA000FFFFFFFFFFFFFFFFFFFFFFFFFFFFFFFF12
:104EB000FFFFFFFFFFFFFFFFFFFFFFFFFFFFFFFF02
:104EC000FFFFFFFFFFFFFFFFFFFFFFFFFFFFFFFFF2
:104ED000FFFFFFFFFFFFFFFFFFFFFFFFFFFFFFFFE2
:104EE000FFFFFFFFFFFFFFFFFFFFFFFFFFFFFFFFD2
:104EF000FFFFFFFFFFFFFFFFFFFFFFFFFFFFFFFFC2
:104F0000FFFFFFFFFFFFFFFFFFFFFFFFFFFFFFFFB1
:104F1000FFFFFFFFFFFFFFFFFFFFFFFFFFFFFFFFA1
:104F2000FFFFFFFFFFFFFFFFFFFFFFFFFFFFFFFF91
:104F3000FFFFFFFFFFFFFFFFFFFFFFFFFFFFFFFF81
:104F4000FFFFFFFFFFFFFFFFFFFFFFFFFFFFFFFF71
:104F5000FFFFFFFFFFFFFFFFFFFFFFFFFFFFFFFF61
:104F6000FFFFFFFFFFFFFFFFFFFFFFFFFFFFFFFF51
:104F7000FFFFFFFFFFFFFFFFFFFFFFFFFFFFFFFF41
:104F8000FFFFFFFFFFFFDFFFFFFFFFFFFFFFFFFF51
:104F9000FFFFDFFFDFFFFFFFFFFFFFFFFFFFFFFF61
:104FA000FFFFFFFFDFF7FFFFFFFFFFFFFFFFFFFF39
:104FB000FFFFFFFFFFFFFFFFFFFFFFFFFFFFFFFF01
:104FC000FFFFFFFFFFFFFFFFFFFFFFFFFFFFFFFFF1
:104FD000FFFFFFFFFFFFFFFFFFFFFFFFFFFFFFFFE1
:104FE000FFFFFFFFFFFFFFFFFFFFFFFFFFFFFFFFD1
:104FF000FFFFFFFFFFFFFFFFFFFFFFFFFFFFFFFFC1
:10500000FFFFFFFFFFFFFFFFFFFFFFFFFFFFFFFFB0
:10501000FFFFFFFFFFFFFFFFFFFFFFFFFFFFFFFFA0
:10502000FFFFFFFFFFFFFFFFFFFFFFFFFFFFFFFF90
:10503000FFFFFFFFFFFFFFFFDFFFDFFFFFF7FFF7D0
:10504000FFF7FFFFFFF7FFFFFFFFFFFFFFFFFFFF80
:10505000FEFFFEFFFEFFFEFFFEFFFFFFFFFFFFFF65
:10506000FFFFFFFFFFFFFFFFFFFFFFFFFFFFFFFF50
:10507000FFFFFFFFFFFFFFFFFFFFFFFFFFFFFFFF40
:10508000FFFFFFFFFFFFFFFFFFFFFFFFFFFFFFFF30
:10509000FFFFFFFFFFFFFFFFFFFFFFFFFFFFFFFF20
:1050A000FFFFFFFFFFFFFFFFFFFFFFFFFFFFFFFF10
:1050B000FFFFFFFFFFFFFFFFFFFFFFFFFFFFFFFF00
:1050C000FFFFFFFFFFFFFFFFFFFFFFFFFFFFFFFFF0
:1050D000FFFFFFFFFFFFFFFFFFFFFFFFFFFFFFFFE0
:1050E000FFFFFFFFFFFFFFFFFFFFFFFFFFFFFFFFD0
:1050F000FFFFFFFFFFFFFFFFFFFFFFFFFFFFFFFFC0
:10510000FFFFFFF7FFFFFFFFFFFFFFFFFFFFDFFFD7
:10511000FFFFDFFFDFFFFFFFFFFFFFFFFFFFFFFFDF
:10512000FFFFFFFFFFFFFFFFFFFFFFFFFFFFDFFFAF
:10513000FFFFFFFFFFFFFFFFFFFFFFFFFFFFFFFF7F
:10514000FFFFFFFFFFFFFFFFFFFFFFFFFFFFFFFF6F
:10515000FFFFFFFFFFFFFFFFFFFFFFFFFFFFFFFF5F
:10516000FFFFFFFFFFFFFFFFFFFFFFFFFFFFFFFF4F
:10517000FFFFFFFFFFFFFFFFFFFFFFFFFFFFFFFF3F
:10518000FFFFFFFFFFFFFFFFFFFFFFFFFFFFFFFF2F
:10519000FFFFFFFFFFFFFFFFFFFFFFFFFFFFFFFF1F
:1051A000FFFFFFFFFFFFFFFFFFFFFFFFFFFFFFFF0F
:1051B000FFFFFFFFFFFFFFFFFFFFFFFFFFFFFFFFFF
:1051C000FFFFFFFFBEF7FFFF3BEFBDFF9DFF5DF75A
:1051D000BEFFFEFFDBFFFAFF79FF78FFB9FFDAFFC2
:1051E000BBFFBDFFDFFF9FFF5CF75CF73BEF7DF789
:1051F000FFFFFFFFDEFFFFFFFFFFFFFFFFFFFFFFE0
:10520000FFFFFFFFFFFFFFFFFFFFFFFFFFFFFFFFAE
:10521000FFFFFFFFFFFFFFFFFFFFFFFFFFFFFFFF9E
:10522000FFFFFFFFFFFFFFFFFFFFFFFFFFFFFFFF8E
:10523000FFFFFFFFFFFFFFFFFFFFFFFFFFFFFFFF7E
:10524000FFFFFFFFFFFFFFFFFFFFFFFFFFFFFFFF6E
:10525000FFFFFFFFFFFFFFFFFFFFFFFFFFFFFFFF5E
:10526000FFFFFFFFFFFFFFFFFFFFFFFFFFFFFFFF4E
:10527000FFFFFFFFFFFFFFFFFFFFFFFFFFFFFFFF3E
:10528000FFFFFFFFFFFFBEF79AD6B6B596B511AD8B
:1052900011B5ED93C9722A7B0B9CCAB48AC5C0E5CF
:1052A000A0DD81D523C563ACC5932683866A274AD2
:1052B000074AC641CA62B19CD6C5B9DEDEFFFFFF10
:1052C000FFFFFFFFFFFFFFFFFFFFFFFFFFFFFFFFEE
:1052D000FFFFFFFFFFFFFFFFFFFFFFFFFFFFFFFFDE
:1052E000FFFFFFFFFFFFFFFFFFFFFFFFFFFFFFFFCE
:1052F000FFFFFFFFFFFFFFFFFFFFFFFFFFFFFFFFBE
:10530000FFFFFFFFFFFFFFFFFFFFFFFFFFFFFFFFAD
:10531000FFFFFFFFFFFFFFFFFFFFFFFFFFFFFFFF9D
:10532000FFFFFFFFFFFFFFFFFFFFFFFFFFFFFFFF8D
:10533000FFFFFFFFFFFFFFFFFFFFFFFFFFFFFFFF7D
:10534000DEFFFFFFDFFFDFFFFEFF1ADF39C63BCEC8
:1053500077BD0E94717BAC62A739E220A118C21808
:10536000C320E42062ABC4E5C2B440410218C220AD
:105370006339C849A172038362728159266A50A4B5
:10538000D6C5F6BDD7D6FEFFFFFFDFFFFFFFFFFF4D
:10539000FFF7FFFFFFFFFFFFFFFFFFFFFFFFFFFF25
:1053A000FFFFFFFFFFFFFFFFFFFFFFFFFFFFFFFF0D
:1053B000FFFFFFFFFFFFFFFFFFFFFFFFFFFFFFFFFD
:1053C000FFFFFFFFFFFFFFFFFFFFFFFFFFFFFFFFED
:1053D000FFFFFFFFFFFFFFFFFFFFFFFFFFFFFFFFDD
:1053E000FFFFFFFFFFFFFFFFFFFFFFFFFFFFFFFFCD
:1053F000FFFFFFFFFFFFFFFFFFFFFFFFDFFFFFFFDD
:10540000FFFFFFFFFFFFDFFFFFFFFFFF7CF717CE70
:105410009BDEDAE62C9443622362006A60720083AA
:10542000A193E29BC29B418BE08260D4A0ED60D54A
:10543000C0A3038B218B008B2193C3A3C4C4C3E5FA
:1054400061D5C0A303832EA4F9DDBCDE95B59CF71E
:10545000FEFFDFFFFFFFFFFFFEFFFFFFFFFFFFFF7E
:10546000FFFFFFFFFFFFFFFFFFFFFFFFFFFFFFFF4C
:10547000FFFFFFFFFFFFFFFFFFFFFFFFFFFFFFFF3C
:10548000FFFFFFFFFFFFFFFFFFFFFFFFFFFFFFFF2C
:10549000FFFFFFFFFFFFFFFFFFFFFFFFFFFFFFFF1C
:1054A000FFFFFFFFFFFFFFFFFFFFFFFFFFFFFFFF0C
:1054B000FFFFFFFFFFFFFFFFFFFFFFFFFFFFFFFFFC
:1054C000FFFFDFFFFFFFFFFFDFF7FFFFFFFFDFFF54
:1054D0003CE798D67DFFB5CD636AE07A23AC829B2A
:1054E00000E540EDA0F5E1F5E0FDC0F5A0ED80EDB3
:1054F00060EDA0EDC0EDC0EDC3EDA2ED80ED80ED5F
:10550000E3D420BC00BC40E520FEC0E541B40393D9
:1055100093A4BAE656CE7BEFFFFFFFFFFFFFFEFF2F
:10552000FFFFFFFFFFFFFFFFFFFFFFFFFFFFFFFF8B
:10553000FFFFFFFFFFFFFFFFFFFFFFFFFFFFFFFF7B
:10554000FFFFFFFFFFFFFFFFFFFFFFFFFFFFFFFF6B
:10555000FFFFFFFFFFFFFFFFFFFFFFFFFFFFFFFF5B
:10556000FFFFFFFFFFFFFFFFFFFFFFFFFFFFFFFF4B
:10557000FFFFFFFFFFFFFFFFFFFFFFFFFFFFFFFF3B
:10558000FFFFFFFFFFFFFFFFFFFFFFFFFFFFFFFF2B
:10559000FFFFDFFF3EEFDBD6BEFFEFB4E07A82BC59
:1055A000E3D440C442E560ED60ED60ED60ED60ED98
:1055B00060ED80EDA0F5C1F5A0EDC0E5E0EDC0ED3A
:1055C000C0EDC0F5A0F5A0ED80E5E0DC80D4E0DC26
:1055D00081EDA1ED40DD03830A9C77DEBADEDEF7C4
:1055E000FEFFFFFF9FFFFFFFFFFFFFFFFFFFFFFF2C
:1055F000FFFFFFFFFFFFFFFFFFFFFFFFFFFFFFFFBB
:10560000FFFFFFFFFFFFFFFFFFFFFFFFFFFFFFFFAA
:10561000FFFFFFFFFFFFFFFFFFFFFFFFFFFFFFFF9A
:10562000FFFFFFFFFFFFFFFFFFFFFFFFFFFFFFFF8A
:10563000FFFFFFFFFFFFFFFFFFFFFFFFFFFFFFFF7A
:10564000FFFFFFFFFFFFFFFFFFFFFFFFFFFFFFFF6A
:10565000FFFFFFFFFFFFFFFF7EF7BBE6DFFF91C508
:10566000229CE0C4A0ED42ED41ED60ED80ED80EDC7
:10567000A0EDC0EDE1EDC1EDC1EDA0EDA1EDC1EDFD
:10568000E0EDE0EDE0EDE1EDE1EDE0EDC0E5E0EDD8
:10569000C0ED60ED22E522E560E580ED21D5C1A3F6
:1056A0004ECDDDFFFBE6BEF7FFFFFFFFFFFFFFFF75
:1056B000FFFFFFFFFFFFFFFFFFFFFFFFFFFFFFFFFA
:1056C000FFFFFFFFFFFFFFFFFFFFFFFFFFFFFFFFEA
:1056D000FFFFFFFFFFFFFFFFFFFFFFFFFFFFFFFFDA
:1056E000FFFFFFFFFFFFFFFFFFFFFFFFFFFFFFFFCA
:1056F000FFFFFFFFFFFFFFFFFFFFFFFFFFFFFFFFBA
:10570000FFFFFFFFFFFFFFFFFFFFFFFFFFFFFFFFA9
:10571000FFFFFFFFFFFFFFFFFFFFFFFFBEFFBDFF1C
:10572000BCFF3BFFAAD580D580E540E540ED40EDCC
:10573000A0F5E0F5C0EDC0EDC0EDC0EDE0EDC0EDD1
:10574000C0EDC0EDC0EDC0EDE0EDE0EDC0EDA0EDD1
:10575000A0EDA1E5C1EDC0EDC0EDC0EDA0ED80ED87
:1057600080E580ED60E5E3CCEEE5DCFF5EF7FFFF72
:10577000FFFFFFFFFFFFFFFFFFFFFFFFFFFFFFFF39
:10578000FFFFFFFFFFFFFFFFFFFFFFFFFFFFFFFF29
:10579000FFFFFFFFFFFFFFFFFFFFFFFFFFFFFFFF19
:1057A000FFFFFFFFFFFFFFFFFFFFFFFFFFFFFFFF09
:1057B000FFFFFFFFFFFFFFFFFFFFFFFFFFFFFFFFF9
:1057C000FFFFFFFFFFFFFFFFFFFFFFFFFFFFFFFFE9
:1057D000FFFFFFFFFFFFFFFFFFFFFFFFFFFFFFFFD9
:1057E000DFFFBDFFFCFFBAFF89E583E560DDA0EDCB
:1057F00060ED60ED01F680E5C0EDC0EDC0EDC0EDFF
:10580000E0EDE0EDC0EDC0ED00EEE0EDE0EDE0F547
:10581000E0EDE0EDE0EDE1EDA1EDE0EDE0EDC0ED7E
:10582000A0EDC2F5C0ED80ED60ED80ED80ED42DDD4
:105830002DEEFBFFBEF7FFF7FFFFFFFFFFFFFFFFB0
:10584000FFFFFFFFFFFFFFFFFFFFFFFFFFFFFFFF68
:10585000FFFFFFFFFFFFFFFFFFFFFFFFFFFFFFFF58
:10586000FFFFFFFFFFFFFFFFFFFFFFFFFFFFFFFF48
:10587000FFFFFFFFFFFFFFFFFFFFFFFFFFFFFFFF38
:10588000FFFFFFFFFFFFFFFFFFFFFFFFFFFFFFFF28
:10589000FFFFFFFFFFFFFFFFFFFFFFFFFFFFFFFF18
:1058A000FFFFDFFFFFFFFFFFFDFFBAFF11CE40E567
:1058B00060ED40ED40EDA1F5C2F580E5E0E5A0ED3D
:1058C000A0EDA0EDC1EDC1EDE2F502F622FE41E64C
:1058D00021EE43F644F602F600EE21F602EEC0F5A4
:1058E000A0F5A1EDC1EDC0EDA0ED80EDA3F580ED3B
:1058F00040E540ED80ED82DD6CE6FDFFFFF7FFFF48
:10590000FFFFFFFFFFFFFFFFFFFFFFFFFFFFFFFFA7
:10591000FFFFFFFFFFFFFFFFFFFFFFFFFFFFFFFF97
:10592000FFFFFFFFFFFFFFFFFFFFFFFFFFFFFFFF87
:10593000FFFFFFFFFFFFFFFFFFFFFFFFFFFFFFFF77
:10594000FFFFFFFFFFFFFFFFFFFFFFFFFFFFFFFF67
:10595000FFFFFFFFFFFFFFFFFFFFFFFFFFFFFFFF57
:10596000FFFFFFFFDFFFDFFFFFFFDFF7FFFFDDFFD1
:1059700007EE01ED60E560E580EDA0EDC0EDC0ED66
:10598000C0EDA0EDE0ED00EE21F640F620EE20EEB9
:1059900040EE60F640EE40EE40EE40EE40EE40EE6F
:1059A00040EE40EE40EE40EE20EE00EEE0EDC0EDC9
:1059B000A0EDC0EDC0EDA1ED61ED60ED60ED61DD4C
:1059C0006FF6DDFFDFFFFDF7FEFFFFFFDFFFDFFF0D
:1059D000FFFFFFFFFFFFFFFFFFFFFFFFFFFFFFFFD7
:1059E000FFFFFFFFFFFFFFFFFFFFFFFFFFFFFFFFC7
:1059F000FFFFFFFFFFFFFFFFFFFFFFFFFFFFFFFFB7
:105A0000FFFFFFFFFFFFFFFFFFFFFFFFFFFFFFFFA6
:105A1000FFFFFFFFFFFFFFFFFFFFFFFFFFFFFFFF96
:105A2000FFFFFFFFFFFFFFFFFFFFFFFFFFFFFFFF86
:105A3000FFFFFFFF10F783E520ED60E580EDA0EDAF
:105A4000A0EDC0EDC0EDE0ED01EE00EE20F641F678
:105A500040F640F640EE40EE40F640EE40EE40EEBE
:105A600040F640EE40EE40EE40EE40EE40EE20EEDE
:105A700020EE00EEE0EDC0EDC0EDA0EDA1ED81ED7A
:105A800080ED80ED40DDC8E5F3FEDFFFFEFFFFF7B0
:105A9000FFFFFFFFDFFFFFFFFFFFFFFFFFFFFFFF36
:105AA000FFFFFFFFFFFFFFFFFFFFFFFFFFFFFFFF06
:105AB000FFFFFFFFFFFFFFFFFFFFFFFFFFFFFFFFF6
:105AC000FFFFFFFFFFFFFFFFFFFFFFFFFFFFFFFFE6
:105AD000FFFFFFFFFFFFFFFFFFFFFFFFFFFFFFFFD6
