:020000040800F2
:10000000900A0020D50D0008950D0008970D0008F6
:10001000990D00089B0D00089D0D000800000000D0
:100020000000000000000000000000009F0D00081C
:10003000A10D000800000000A30D000879050008CC
:1000400080B5B24A126800E01268824201D0002AEC
:10005000FAD182420CD0AD4A12680260AB4A1060FD
:1000600001228273002282810A00812100F034F98A
:1000700001BDF8B504000D00A5480668A34807684F
:1000800000E03F68A74201D0002FFAD1002F37D0FF
:10009000200000F051F900281BD00020A0739B48DD
:1000A000076807E0BC4204D022008721380000F036
:1000B00028F83F68002FF5D1A068002809D0AC428D
:1000C00007D0934804600022832114F10C00A36838
:1000D00098478E480068844205D18C4800680068C3
:1000E0008A4908600AE08948076800E03F68002FF5
:1000F00004D03868A042F9D120683860844806608E
:10010000F1BD38B504000D00A07BC0071AD5A0686A
:10011000002817D07E4804600220A0732900C9B2CD
:1001200014F10C00A3689847022804D0032802D0D9
:10013000EDB2832D04D121002000FFF79AFF01E0EA
:100140000120A07331BD8A206F49087000207149D9
:100150000870704800787049087000206B4908608A
:100160006A4800686A490860704710B500206B490A
:100170000870664804680CE0E07B002808D0012085
:10018000A0730020E073002282212000FFF7B9FF56
:100190002468002CF0D110BD80B55F48007800289D
:1001A00059D05F485B4909780C2202FB01000078B6
:1001B0005C4908705A48574909780C2202FB010033
:1001C0004068594908605648524909780C2202FB98
:1001D00001008068554908604E480078401C202185
:1001E00090FBF1F202FB11024A4802704A48007883
:1001F000401E494908704D48006800281BD14348FB
:1002000000684B4908604A480068002823D04348EA
:100210000078002801D0FFF7A8FF43480268414852
:10022000017843480068FFF76CFF414800680068A8
:100230003F490860E7E73B480078812803D1012067
:100240003A4909688873384802683648017837485F
:100250000068FFF756FF01BD80B5304800780028E0
:1002600001D0FFF782FFFFF797FF2B4800782B495B
:100270000978081802BD30B4274B1B78202B01D118
:10028000012027E0234B1B78234C2478E318DBB2B2
:10029000202493FBF4F505FB1435264B1D70204BF1
:1002A000244C24780C2505FB043319701C49214B80
:1002B0001B780C2404FB03114A6019491D4A12786B
:1002C0000C2303FB0211886013480078401C12497C
:1002D0000870002030BC704710B50D4B1C68C9B2C7
:1002E000FFF70FFF0A48046010BD00280AD0817B89
:1002F000012902D0817B022904D10121C17301208F
:100300000649087070470000840200207002002037
:10031000740200208602002085020020870200204F
:100320007C00002088020020780200207C0200204F
:100330008002002089020020807B002801D001205B
:1003400000E00020C0B2704710B56D48006800287A
:1003500003D100206B49086019E000F031F96849C9
:100360000A68116853685918091A92680AE01368F4
:100370005468E3181B1A8B4203D21168536859184A
:10038000091A9268002AF2D108185E49086010BD67
:100390002DE9F04104000D001600012120880028FD
:1003A00002D0592806D05CE00020554908600021A1
:1003B00059202080C9B2002901D1012055E0EDB2B9
:1003C000872D23D1300004E04D49096889684C4AE3
:1003D00011604B490968002904D049490968C96876
:1003E0008142F1D04649096800290ED044490F687E
:1003F00002E0B9688968B960B968002905D0B968B0
:10040000C9688142F5D0BF68F6E7D0E7EDB2822D2A
:1004100007D0CCE7B8683A4908600020B860FFF719
:1004200093FF5FF000083648076803E000F01FF80C
:10043000B846BF68002FBAD0380000F0DEF80028B8
:10044000F6D03A008821F868FFF715FF0028EDD1B3
:100450000020F860B8F1000FDCD0B868C8F80800D8
:10046000DBE70021002020800320BDE8F08180B57B
:100470002548FFF73AFF01BD10B50400FFF7F7FF6D
:10048000E06800280DD01E48006800E08068002861
:1004900007D0A042FAD11D480068E060FFF754FF82
:1004A00009E01A480068E06015480068A060144838
:1004B0000460FFF749FF10BD10B50400200000F0F4
:1004C00095F82000FFF7D8FF10BDC068002801D1C3
:1004D000012000E00020C0B27047094800680028F1
:1004E00001D0012000E00020C0B2704780B5FFF7C6
:1004F000F4FF002802D00348006800E0002002BD9D
:10050000680200206C0200205000002074020020CD
:1005100040B2002808D509012B4A40B210F00F0064
:10052000801800F8041C03E00901284A40B28154F5
:10053000704780B5411EB1F1807F01D301200EE0EC
:10054000401E234908600F215FF0FF30FFF7E0FFF6
:1005500000202049086007201F490860002002BDD4
:1005600080B51E4800686421B0FBF1F0FFF7E1FFA1
:10057000002800D0FEE701BD10B519480068401CF6
:1005800017490860FFF7A9FF002807D0144804683E
:10059000FFF7ACFF844201D3FFF769FF1148006801
:1005A000401E104908600F480068002807D10E4817
:1005B0000068401C0C49086064200A49086010BDAE
:1005C000074800687047000018ED00E000E400E014
:1005D00014E000E018E000E010E000E07800002007
:1005E0005C020020700000206002002010B50400B2
:1005F0006160FFF7E5FF206010BD10B50400FFF754
:10060000DFFF2168401A401C6168814201D201204D
:1006100000E00020C0B210BD70B504460846154683
:100620001E0004D015F8011BA047761EFAD170BD3C
:100630002DE9F04784B08246894614461F460DF1E5
:10064000000807E00123224649465046FFF7E4FF31
:100650008146641C207810B904B0BDE8F0872528D5
:10066000F0D1641C14F8010B0146252818D0582835
:100670005CD063280ED0642818BF692814D06F2876
:1006800054D0702858D073285DD0752818BF7828AA
:100690004CD0DFE73868386050F8041B3860C9B2C6
:1006A0004846D0478146D5E73868386050F8045B43
:1006B0003860002D03D52D214846D047814664205F
:1006C0006F2808BF082205D040F02001782914BF08
:1006D0000A2210220B21AC46642803D1002D48BF0A
:1006E000CCF1000CBCFBF2F502FB15CC0CF1300692
:1006F0004B1E5FFA86FC1946BCF13A0FA4BFA0F16D
:10070000510EF44403F808C05FEA050C01D001293A
:10071000E8DA00A80D184846D1F10B09C2D015F847
:10072000011BD047B9F10109F9D1BBE7396839603C
:1007300051F8045B3960C3E73868386050F8045BEF
:1007400038607820BCE73868386050F8045B38605F
:10075000284600F009F806004846A3D015F8011B0A
:10076000D047761EFAD19DE700F10103810704D03E
:1007700010F8011B89B18107FAD10268B2F1013189
:10078000914311F0803F04BF50F8042FF6E710F8B2
:10079000011B11B110F8011BFBE7C01A704710B420
:1007A00050F8041B81B102681218001D50F8043B78
:1007B000DC0744BFA9F10104E31852F8044B43F8E5
:1007C000044B091FF9D1EBE710BC7047F0B585B0B9
:1007D00004000D0000200021002200230026AF8924
:1007E000002F2600208A4CF6FF710840E988084354
:1007F0002082A0894EF6F3110840A9882A89114366
:100800006A8911430843A081A08A4FF6FF4108403E
:10081000A9890843A08200A800F06AF81B48864214
:1008200001D1039900E00299A089000407D519209D
:1008300000FB01F029684900B0FBF1F206E0192045
:1008400000FB01F029688900B0FBF1F26420B2FBE3
:10085000F0F000010109642303FB1123A1890904BD
:1008600008D5D90032316422B1FBF2F111F0070151
:10087000084307E0190132316422B1FBF2F111F0B3
:100880000F010843208105B0F0BD00000038014091
:10089000C9B2002904D0818951F40051818104E05A
:1008A00081894DF6FF72114081817047C905C90DDC
:1008B00081807047002289B2B1F5007F008808422C
:1008C00001D0012200E000221000C0B2704750F8B1
:1008D000041B61B150F8042BD30744BFA9F10103F5
:1008E0009A18002342F8043B091FFAD1EFE770473A
:1008F00030B40022002100230024354D2D6815F06E
:100900000C052A00002A04D0042A05D0082A06D0A3
:1009100021E03049016020E02E4901601DE02C49B2
:10092000096811F470112A4A126812F48033890C94
:10093000891C002B03D1284A514301600AE0244A54
:100940001268920303D5244A5143016002E0214A10
:100950005143016001E01F4901601D49096811F020
:10096000F00212091D49545C0168E14041601849D8
:10097000096811F4E062120A1849545C4168E140C8
:1009800081601349096811F46052D20A1349545C1A
:100990004168E140C1600E49096811F44042920B80
:1009A0000F49545CC168B1FBF4F1016130BC704780
:1009B000C9B2002905D00B490968084309490860F4
:1009C00005E00849096831EA0000064908607047F7
:1009D0000410024000127A0000093D00600000206F
:1009E000740000201810024010B504000121208876
:1009F000002804D0172809D01D2820D032E00A2171
:100A00002B48FFF759FD002117202080C9B200298B
:100A100004D02748FFF759FD002801D1012025E027
:100A20004FF40051234800F0BCF8234800F0BCF814
:100A30000A211F48FFF740FD00211D202080C9B278
:100A4000002904D01A48FFF740FD002801D10120F9
:100A50000CE04FF40051174800F0A0F8174800F0E0
:100A6000A3F8CCE7002100202080032010BD80B532
:100A700000F0ACF800F0FEF8114800F095F8FFF730
:100A80006FFDFFF760FB00210E48FFF7D9FA0E4813
:100A900000F00CF90D4800F087F8FFF7DDFB0128A6
:100AA000FBDA0B480068401C09490860F5E70000C4
:100AB0004C02002000100140A40D0008B00D0008F9
:100AC000BC0D000850000020E80D0008800D000853
:100AD00064020020F0B40022002600240025002338
:100AE000002791F803C01CF00F0C624691F803C078
:100AF0005FEACC6C01D58B781A430B781B0621D0AA
:100B00000368002406E0CD78482D02D10125A540D8
:100B10000561641C082C14D20125A5400E882E40C6
:100B2000AE42F6D1A5000F2616FA05F7BB4312FA1E
:100B300005F52B43CD78282DE5D10125A54045614C
:100B4000E7E703600B88FF2B26DD4368002420E0E5
:100B5000012514F10806B5400E882E40AE4217D18B
:100B6000A5000F2616FA05F7BB4312FA05F52B432D
:100B7000CD78282D04D1012514F10806B540456132
:100B8000CD78482D04D1012514F10806B540056142
:100B9000641C082CDCD34360F0BC704789B201614F
:100BA000704789B2416170470EB400B582B003A9A5
:100BB0000091024600AB0121034878440A30FFF758
:100BC00037FD06BC5DF810FB9501000000B585B04F
:100BD000012144F20400FFF7EBFE4FF40070ADF882
:100BE000000003208DF8020018208DF8030000A9F2
:100BF0001E48FFF76FFF4FF48060ADF80000032040
:100C00008DF8020004208DF8030000A91748FFF7B3
:100C100061FF4FF4165001900020ADF8080000204D
:100C2000ADF80A000020ADF80C000020ADF810006F
:100C30000C20ADF80E0001A90D48FFF7C7FD0121FA
:100C40000B48FFF725FE05B000BD10B504002100DC
:100C5000C9B289B20648FFF729FE80210448FFF790
:100C600029FE0028F9D0200010BD00000008014036
:100C70000038014080B501211020FFF799FE4FF4A4
:100C80000050ADF8000010208DF8030003208DF80F
:100C9000020000A90448FFF71DFF4FF4005102486D
:100CA000FFF77CFF01BD00BF0010014038B5040014
:100CB000002505E0002154F82500FFF7C1F96D1C5F
:100CC00054F825000028F5D131BD000010B50749C2
:100CD00079441831064C7C44163404E00A68081D37
:100CE000511888470146A142F8D110BD0800000004
:100CF00028000000DBFBFFFF100200007C0000204A
:100D0000000000009BFAFFFF7C000000E4000000F0
:100D1000000000200000000000F00BF8002801D0C7
:100D2000FFF7D4FF0020C046C046FFF7A0FE00F04A
:100D300002F80120704700F001B80000074638466D
:100D400000F002F8FBE7000080B5C046C046024A4A
:100D500011001820ABBEFBE72600020038B50446A0
:100D60000D46284600F006F8A84218BF0024204689
:100D700032BD00000149FFF768BF00BF000000203E
:100D800050726F636573732072756E6E696E670D56
:100D90000A0000007047FEE7FEE7FEE7FEE7704747
:100DA000704770474C4544204F4E0D0A000000002C
:100DB0004C4544204F46460D0A0000006C656420F7
:100DC000696E69740A0000004576656E7420746966
:100DD0006D657200C046C046C046C046FFF79CFF26
:100DE000426C696E6B0000004000002000000000B3
:100DF00002040101FC0100204C020020FC01002043
:100E0000FC010020FC0100203D0000202400002007
:100E100000000000000000000000000000000000D2
:100E200000000000000000000000000000000000C2
:100E300000000000E00D0008E909000800000000C3
:100E400000000000C80D0008910300080000000029
:100E50000000000001020304010203040607080960
:0C0E6000640000000204060800A24A041E
:0400000508000DD50D
:00000001FF
