:020000040800F2
:10300000280A0020053200087D4700082F470008E5
:1030100079470008394500080953000800000000FE
:10302000000000000000000000000000E948000867
:103030006545000800000000F14700089D4A0008AF
:103040001F3200081F3200081F3200081F3200081C
:103050001F3200081F3200081F3200081F3200080C
:103060001F3200081F3200081F3200081F320008FC
:103070001F3200081F3200081F3200081F320008EC
:103080001F3200081F3200081F3200081F320008DC
:103090001F3200081F3200081F3200081F320008CC
:1030A0001F3200081F3200081F3200081F320008BC
:1030B0001F3200081F3200081F3200081F320008AC
:1030C0001F3200081F3200081F3200081F3200089C
:1030D0001F320008D15000081F3200081F320008BC
:1030E0001F3200081F3200081F3200081F3200087C
:1030F0001F3200081F3200081F3200081F3200086C
:103100001F3200081F3200081F3200081F3200085B
:103110001F3200081F3200081F3200081F3200084B
:103120001F3200081F3200081F3200081F3200083B
:1031300000F002F800F056F80AA090E8000C824473
:103140008344AAF10107DA4501D100F04BF8AFF250
:10315000090EBAE80F0013F0010F18BFFB1A43F075
:1031600001031847C4260000E4260000103A24BFDB
:1031700078C878C1FAD8520724BF30C830C144BFDC
:1031800004680C607047000000230024002500261E
:10319000103A28BF78C1FBD8520728BF30C148BFBA
:1031A0000B607047642900F0A980782900F0E28064
:1031B000732900F0D982002070471FB59DE80300F5
:1031C00000F04CFF00F02EFF04000020002102F070
:1031D00043FA401C606000F001FD1FBD10B500F017
:1031E00066FD10BD00F0C9FD1146FFF7E6FF02F0D5
:1031F00063F900F0D5FE03B4FFF7F0FF03BC01F064
:10320000BFF800000948804709480047FEE7FEE78D
:10321000FEE7FEE7FEE7FEE7FEE7FEE7FEE7FEE786
:1032200004480549054A064B70470000A14A0008BA
:103230003131000828040020280A00202806002038
:10324000280600200FB4044910B503AA029800F024
:103250008FFA10BC5DF814FB1C03002070B5044607
:1032600085690068C10601D5302600E02026C00728
:1032700007D070BDD4E9012130469047206A401C38
:1032800020626D1EF6D570BD70B504468569007864
:10329000C00707D170BDD4E9012120209047206AE2
:1032A000401C20626D1EF6D570BD70B50C460546FB
:1032B000012A05D02878800600D5EA69002302E0BB
:1032C000012305E05B1C934202D2E05C0028F9D1A7
:1032D000A869E618C01AA861286A18442862284616
:1032E000FFF7BCFF04E0D5E9012114F8010B90477A
:1032F000B442F8D32846FFF7C7FF70BD2DE9F0416F
:103300000646002410687529314616A510D0AFF383
:103310000080002802DA404213A507E031688A07DE
:1033200001D512A502E0490704D511A5012401E049
:10333000AFF3008000210A2206F1240709E0B0FB68
:10334000F2FCB0FBF2F302FB1C003030785418465C
:10335000491C0028F3D123462A463046BDE8F041F7
:1033600000F097B9000000002D0000002B000000C5
:103370002000000070B504460D4621461068AFF3EA
:1033800000802188090502D50F4A7A4402E00E4ADE
:103390007A440E32002104F1240305E000F00F0608
:1033A0000009965D5E54491C0028F7D1207800235F
:1033B000000704D5702D02D009B102231132204636
:1033C000BDE8704000F065B9762300002DE9F05F9C
:1033D000894604464FF0000ADFF824B1FB44C0F8E8
:1033E00020A02046E168884700287DD0252806D007
:1033F000D4E901219047206A401C2062F1E70025B2
:103400005F462046E16888472028064607DB312EC4
:1034100005D2B81910F8200C08B10543F1E7A80748
:1034200001D525F00405C4F81CA00027C4F818A095
:103430002A2E09D0304601F069FF38B304EB870823
:10344000303EC8F8186019E059F8041B204604EB18
:1034500087029161E1688847012F064618D1E0692B
:10346000002820DA25F020051DE0D8F8180000EB30
:10347000800006EB40003038C8F818002046E168AC
:103480008847064601F042FF0028EED1012F0AD0FE
:103490002E2E08D12046E16888477F1C0646022F61
:1034A00045F02005C4DBA069002803DA404245F05E
:1034B0000105A061E80701D025F01005A6B1A6F12D
:1034C0004100192802D8203645F400654A463146A5
:1034D000204625604D46FFF765FE60B1012807D004
:1034E000ED1D25F0070000E007E000F1080978E78E
:1034F00005F1040975E730467AE7206ABDE8F09FD8
:103500004C2300000FB400B58DB010A909900091B4
:103510000B904FF0FF300A9000200C900648784442
:103520000690064878446A4607900F9909A800F06B
:1035300045F90DB05DF814FBBB020000D30200009A
:103540002DE9FF5F1D464FF0FF3B91464FF000080D
:103550005F46D5E90146A96901987F1C8847296A19
:10356000824688470028F6D1BAF1FF3F0CD0002EE2
:1035700024F4C06419DD600614D5BAF12B0F09D00C
:10358000BAF12D0F0ED103E0584604B0BDE8F09F0C
:1035900044F48064A96901987F1C8847761E82469E
:1035A000002E02DDBAF1300F03D0B9F1000F26D0A2
:1035B00032E0A969761E01987F1C44F400748847A4
:1035C000002E824605DDBAF1780F06D0BAF1580F09
:1035D00003D0B9F1000F10D01EE0B9F1000F02D0F6
:1035E000B9F1100F18D1A969761E01987F1C24F437
:1035F000007488478246102002E0082000E00A207C
:10360000814609E0A96908FB0908761E01987F1C1C
:1036100044F4007488478246002E05DD4946504632
:1036200000F0B8F80028EDDAE96901988847A005AC
:1036300002D46FF00100A8E7E00725D1600613D59A
:10364000600502D5C8F1000000E0404629680A1D67
:103650002A600968220501D5087015E0220701D506
:10366000088011E008600FE02868011D29600068EB
:10367000210502D580F8008006E0210702D5A0F8D8
:10368000008001E0C0F8008038467EE77047704750
:1036900070472DE9F0470D4699469246044600F1E1
:1036A00024080168880604D5E06921F01001216032
:1036B00000E00120A84201DD471B00E00027A169CE
:1036C0007A1902EB0900081AA0612078C00602D41A
:1036D0002046FFF7C3FD002608E0D4E901211AF8CF
:1036E00006009047206A401C761C20624E45F4DBA1
:1036F0002078C0060AD52046FFF7B0FD06E0D4E9E1
:10370000012130209047206A401C2062381EA7F11A
:103710000107F4DC07E0D4E9012118F8050090471F
:10372000206A401C2062281EA5F10105F3DC20461A
:10373000FFF7AAFD2078000602D50220BDE8F08739
:103740000120FBE710B5436913B1AFF3008001E03E
:10375000FFF7ABFD012010BD127800F124010A70C3
:1037600000224A700122EDE711684FF0FF32E9E7CD
:10377000074B70B50D467B4400F05FF804462846C1
:1037800000F028FA10B14FF0FF3070BD204670BD38
:10379000CF1C00003A2800D2303820F02002412A05
:1037A00001D3A2F13700884201D34FF0FF307047B8
:1037B000026811441378016018467047D1600549CA
:1037C0007944516104497944116200211161114623
:1037D00000F046B8EDFFFFFF53000000426842B121
:1037E000016811F8013B23B1521EC0E900121846CE
:1037F00070470121C160881E704742685AB1C36892
:10380000016843B983688B4205D0491E521CC0E948
:103810000012002070474FF0FF30704710B504468B
:1038200000F0D0FA0068005D00F0010010BD00005B
:1038300001694A1C02610878704700B58FB0CDE974
:1038400001310021059105497944CDE90310114664
:103850006846FFF7BBFD0FB000BD0000E5FFFFFFAE
:103860002DE9F34F4FF0000A0C4656468DB001206B
:103870000C9001F10C000B9062690B9801219047AC
:10388000051E2DD0252D2CD0216A8847C0B1626934
:103890000B9801219047216A88470028F7D1626977
:1038A000411E0B98904700E0761CA1690D9888474F
:1038B000216A88470028F7D1E1690D988847DBE73E
:1038C000A1690D988847A842074601D1761CD3E725
:1038D000E1690D9888477F1C02D1BAF1000F6FD0C3
:1038E0006BE162690B9800273D46394690472A28CC
:1038F00004D162690B98012190470125DFF8D0823D
:1039000062690B9801219047A0F130010A290AD27F
:103910004745E5DC07EB870100EB4107303FDFD48B
:1039200045F01005ECE7E90601D46FF000476C287C
:103930000AD04C2814D0682815D06A280DD07428D5
:103940001CD07A281AD01DE062690B98012190479B
:103950006C2802D045F0040514E045F002050DE0A6
:1039600045F020050AE062690B980121904768281C
:1039700002D045F0080505E045F4006562690B9842
:1039800001219047C4E9015765283DD019DC58282A
:103990007AD00CDC452837D004DC252826D04128F5
:1039A0009ED131E046282FD0472899D12CE05B28C2
:1039B00077D0612828D063287CD0642823D15AE0AE
:1039C000F6E06F2848D008DC66281DD067281BD099
:1039D000692821D06E2816D127E0702845D0732899
:1039E00068D0752847D078280DD14DE0A1690D9891
:1039F0008847252805463FF469AFE1690D98884757
:103A00006D1C3FF46AAFD8E00D9923466A466FF00B
:103A10000100AFF30080C5E045F0400023464FF0C1
:103A200000026060A80736D43EE0E8077FF447AFA5
:103A30002068011D21600068290501D506701BE77B
:103A4000290701D5068017E7A90703D5F117C0E9B3
:103A5000006111E706600FE745F0400023464FF094
:103A600008026060A80716D41EE040F60E0125EAA1
:103A70000100606016E045F0400023464FF00A0266
:103A80006060A80707D40FE045F040006060A80719
:103A900008D5234610220D996FF00100AFF3008086
:103AA00080E007E0102223460D996FF00100FFF738
:103AB00047FD77E04FF0000963284F46C8464B4664
:103AC000CB4602D05B2806D038E0E80601D40120BE
:103AD000A060012732E06269D4F80CB00B98012194
:103AE00090475E2807D14FF0010949466269D4F832
:103AF0000CB00B989047216939B900210A4603ABF5
:103B000043F82120491C0829FADBD8B3216949B3BD
:103B100008F1010862690B98012190475D28F4D1F2
:103B2000B9F1000F09D0002003A951F82020D24399
:103B300041F82020401C0828F7DB03AB206900284F
:103B400020794FEA40701ED05B462246CDF80080B7
:103B5000CDE901970D9900286FF0010020DAAFF34D
:103B600000801FE0C11703AA00EBD1614B1121F0C7
:103B70001F0102EB8302411A1368012088400343AE
:103B80001360C7E719E00D99224600286FF0010085
:103B9000009702DAAFF3008004E0AFF3008001E0A9
:103BA000AFF3008000280ADA401C06D10C9820B13F
:103BB0004FF0FF300FB0BDE8F08F5046FAE7E9074D
:103BC00001D10AF1010A064400200C9054E60000DD
:103BD000CCCCCC0C007B00F08000704710B5424884
:103BE000542100F0EDF94148542100F0E9F9404832
:103BF000542100F0E5F93F493B483C4A3F4B0860FF
:103C00003D490A603A491960531C0365481C106518
:103C1000012008653B48344A39A1784400F024F972
:103C200020B9384878440A3800F0C3F937482F4A99
:103C300035A1784400F018F920B9344878440A389E
:103C400000F0B7F932482A4A2FA1784400F00CF965
:103C500020B92F4878440A3800F0ABF940232248B5
:103C6000DC000021224600F0DCF820B12548784431
:103C7000543800F09EF91D4822464023002100F0F0
:103C8000D0F820B121487844543800F092F918480F
:103C900022461023002100F0C4F8002806D01C485A
:103CA0007844BDE81040563800F083B910BD104884
:103CB00070B5006D20F001040B4800F04BF90B4883
:103CC00000F048F90A4800F045F909E0206D20F0BD
:103CD0000105204600F03EF9204600F07BF82C4616
:103CE000002CF3D170BD0000C80200201C0300208E
:103CF00070030020180100201C010020200100207A
:103D0000720000001F1B0000770000000B1B00006A
:103D1000F71A00000EB5CDE9000100F011FB02908A
:103D200069460120ABBE0EBD08B569460090022071
:103D3000ABBE08BD1FB58DE8070069460520ABBEC8
:103D400004B010BD1FB58DE80F0069460620ABBE5C
:103D5000F6E708B5694600900920ABBE08BD1CB562
:103D6000CDE9000169460A20ABBE1CBD704708B50D
:103D7000694600900C20ABBE08BD754600F048F9BE
:103D8000AE4605006946534620F00700854618B048
:103D900020B5FFF745FABDE820404FF000064FF090
:103DA00000074FF000084FF0000B21F00701AC4670
:103DB000ACE8C009ACE8C009ACE8C009ACE8C0098F
:103DC0008D46704710B500F02DF9001D10BD00BFE5
:103DD0008918000070B50446051F00F01FF900683F
:103DE000002C14BF446870BD002C18BFAC423CBF0F
:103DF00020466468F8D301680A18AA4218BF4560D3
:103E000003D12A6805461144016028684119A1427E
:103E10001CBF6C6070BD61686960216808442860DF
:103E200070BD70B5C468A50713D0650211D4B2F592
:103E3000807F09D0B2F5007F06D0B2F5806F08D13F
:103E4000012300F1240106E05D1E6FF07F46B542BC
:103E500001D3012070BD0161C361416024F4706130
:103E60001143C160002070BD2DE9F0410C460746AA
:103E70001646104600F06EF82078611C61280AD0C2
:103E8000722802D077283CD102E00125002405E009
:103E90000225042402E0082448F2020511F8010B6F
:103EA0002B2806D0622809D011F8010C74280AD0FA
:103EB0000BE045F0030544F00204EFE745F004058C
:103EC00044F00104EAE744F0100438462146FFF7C5
:103ED00021FF411C15D00021316171604FF4007148
:103EE000F560F1617061200704D53046022200219F
:103EF00000F012F9306D40F0010030653046BDE849
:103F0000F0810020FBE72DE9F0410D460646104CFC
:103F1000206DC10704D0410804D020F00104F7E768
:103F200022460EE0542000F0C8F807000ED0206DA5
:103F300047F00101084354212065384600F040F85D
:103F40003A4629463046BDE8F0418DE70020D6E7E5
:103F5000C80200202DE9F04704464FF000094FF059
:103F6000FF37C568D4E90486A80707D0204600F0CB
:103F700083F93046FFF7D8FE002802DA3846BDE85C
:103F8000F087280502D54046FFF724FF4C21204644
:103F900000F016F8206D20F0010020654846EEE79D
:103FA00010B50446AFF300802046BDE81040FFF78F
:103FB00022B910B500F0AAF9BDE8104000F0A0B990
:103FC0004FF0000200B5134694469646203922BFB2
:103FD000A0E80C50A0E80C50B1F12001BFF4F7AFFD
:103FE000090728BFA0E80C5048BF0CC05DF804EBDF
:103FF000890028BF40F8042B08BF704748BF20F84D
:10400000022B11F0804F18BF00F8012B7047000001
:1040100000487047C4030020704700000048704704
:10402000CC03002000487047E4030020704770472D
:104030007047704738B504460A4600206946AFF31A
:104040000080002808BF38BD02460099204600F0D5
:10405000A4F9012038BD012000F0F3B9F8B5AFF3A1
:104060000080054600200C46102000BF0646A81917
:10407000A0420DD9324669460020AFF30080070008
:1040800008BF00F0DEF90098A04218BF0546C41929
:10409000FFF7C4FF05600746F01D20F00700461932
:1040A000284600F073F9B44208BFF8BDA21B3146A0
:1040B0003868BDE8F84000F070B970B50646FFF703
:1040C000ADFF056806F10B0020F00704B4429CBF69
:1040D000002070BD2B466A68BAB11068A04210D3A8
:1040E00004F1080188423CBF5068586007D351680A
:1040F000101941601168091B016058601460101D9F
:1041000070BD13465268002AE7D121462846FFF7C2
:1041100091FF0028DED170BD2DE9F041044616461E
:104120000D464769007B80072ED03846FFF711FE09
:1041300050BB3EB3012E02D0022E25D104E0204612
:1041400000F045F905441DE03846FFF710FEE16830
:10415000002841F01001E16005DA204600F058F82F
:104160000120BDE8F081C9030BD56268E16A914284
:1041700000D81146A26911442269891A814200DDE2
:1041800008460544002D01DA0220EAE7E16A60688A
:10419000E268814206D29103E06203D522F4003145
:1041A00041F01002A6690027AE4213DCE16A8142A9
:1041B00001D90B4600E0034603EB060C2369ACEB88
:1041C000030CAC4506DD814201D98C4600E08446F3
:1041D0009C4505D1A760276042F02000A5620DE054
:1041E000AD1BE669AE1B8142A66000D90846C01A25
:1041F000281A20605819606022F020000349084006
:10420000E060002084F84870ABE70000BFCFD7FF24
:10421000C16821F4001141F08001C160002181607A
:10422000016070472DE9F047814614460E464FF075
:10423000FF383248D5685769054209D03846A16928
:10424000FFF78DFD002811DB2C48C0430540E560D9
:104250002B46324649463846FFF76CFDA16920F0EF
:104260000042B21A11440028A16103D02046FFF792
:10427000CFFF4046BDE8F08770B504460569C06AC7
:104280006168884200D80846E16821F42011E160A5
:10429000C90312D5A84208D02246411B2846FFF781
:1042A000C1FF10B14FF0FF3070BD0020E562C4E9DE
:1042B0000150E06820F48030E060002070BD10B54F
:1042C0000446C06820F02000E060A16AA06988422E
:1042D0000DD02046FFF7D0FFE06820F4405040F0BA
:1042E0001000E060A06AA0612069E062606044F2B2
:1042F0004001E0688843E06010BD0000100002004B
:10430000002801D000F03CB87047000010B501460D
:1043100002A000F07DF8012010BD00005349475273
:10432000545245443A2052656469726563743A2078
:1043300063616E2774206F70656E3A200000000084
:1043400010B5431C02E010F8011B71B18107FAD1CE
:104350004FF0013202C88C1A8C4314EAC211F9D012
:10436000C01A0A0603D0C01E10BDC01A10BD0A0430
:1043700001D0801E10BD0902FCD0401E10BD0000FF
:1043800001491820ABBEFEE72600020000210160B3
:10439000C0E90110704710207047034640688C4602
:1043A000002818BF88423CBF03464068F8D318680D
:1043B0001844884207D00CF1030020F00700001DCC
:1043C000411A521A0146081D0A60FFF703BD10B5D5
:1043D0000146C268900703D0900607D5886A0AE0B4
:1043E00000F07EF801210160881E10BD8B694868CD
:1043F00018440B69C01A91F848301BB191F8491064
:10440000401A10BD1103FCD50028FADD401E10BD76
:1044100070B505460C460A2000E06D1C00F058F807
:1044200035B128780028F8D102E0641C00F050F87B
:1044300014B120780028F8D1BDE870400A2000F0BF
:1044400047B810B500F050F8BDE81040FFF758BF6E
:104450004FF0013C50F8042B51F8043B9A4221D113
:10446000A2EB0C03934313EACC1317D150F8042B9F
:1044700051F8043B9A4215D1A2EB0C03934313EA83
:10448000CC130BD150F8042B51F8043B9A4209D1BC
:10449000A2EB0C03934313EACC13DBD04FF00000E4
:1044A000704700BFD01A01BAB1FA81F101F01801CA
:1044B00022FA01F0CB40C1F12001DBB2C0B2C01A38
:1044C0002CFA01F3D11A914311EAC311E6D17047D6
:1044D00008B569468DF800000320ABBE08BD00009A
:1044E00000487047C403002010B5012805D0002102
:1044F00003A0FFF78DFF012010BD09A1F8E7000020
:1045000053494752544D454D3A204F7574206F66BC
:104510002068656170206D656D6F72790000000024
:104520003A2048656170206D656D6F727920636F08
:10453000727275707465640000BFFEE7014608483A
:104540000BE0026822B90A6802600022426005E0BE
:1045500042680AB9416001E04068F2E700BF704775
:10456000B8000020704701B502E00098401E00909E
:1045700000980028F9D102E00098401E00900098B1
:104580000028F9D102E00098401E00900098002811
:10459000F9D108BDF0B505460E46144630880246EE
:1045A00007462968002329E00878612802DB08789B
:1045B0007A2805DD0878302809DB0878392806DCF8
:1045C00011F8010BE054BAB1501E82B214E0087821
:1045D00041280ADB08785A2807DC11F8010B203043
:1045E000E0544AB1501E82B206E00020E054491C5B
:1045F0000AB1501E82B205E0581C83B2102B01DABA
:10460000BB42D1DB00BF296032800AB10120F0BD7E
:104610000020FCE72DE9F04102460025002600209D
:1046200000230024002791F803C00CF00F0591F837
:1046300003C00CF0100CBCF1000F03D091F802C0C5
:104640004CEA050591F800C0BCF1000F31D01468A8
:1046500000202BE04FF0010C0CFA00F3B1F800C081
:104660000CEA03069E4220D183004FF00F0C0CFA97
:1046700003F7BC4305FA03FC4CEA040491F803C0B9
:10468000BCF1280F06D14FF0010C0CFA00FCC2F867
:1046900014C00AE091F803C0BCF1480F05D14FF0F7
:1046A000010C0CFA00FCC2F810C0401C0828D1D341
:1046B0001460B1F800C0BCF1FF0F34DD5468002075
:1046C0002EE000F1080C4FF0010808FA0CF3B1F8E5
:1046D00000C00CEA03069E4221D183004FF00F0C6C
:1046E0000CFA03F7BC4305FA03FC4CEA040491F806
:1046F00003C0BCF1280F05D100F1080C08FA0CF832
:10470000C2F8148091F803C0BCF1480F07D100F142
:10471000080C4FF0010808FA0CF8C2F81080401C91
:104720000828CED35460BDE8F0810161704700BF16
:10473000FEE770470246002070470346012070479D
:1047400008B50121102000F055F84FF40050ADF8E5
:10475000000010208DF8030003208DF80200694648
:104760000448FFF757FF4FF400510248FFF7DDFF01
:1047700008BD00000010014000BFFEE770470000C8
:1047800070B5002100230F22C47804B3154C2468AF
:1047900004F4E064C4F5E064210AC1F10403CA40F2
:1047A000447804FA03F184781440214309010E4C43
:1047B0000678A155047804F01F050124AC40057863
:1047C0006D11AD0005F1E025C5F8004109E0047860
:1047D00004F01F050124AC40044D0678761145F81D
:1047E000264070BD0CED00E000E400E080E100E058
:1047F0007047000029B1064A92690243044B9A614E
:1048000004E0034A92698243014B9A6170470000B9
:104810000010024030B500210022002400232D4D5D
:104820006D6805F00C0121B1042905D0082923D1B8
:1048300005E0294D056022E0274D05601FE0254D6C
:104840006D6805F47012234D6D6805F480340225FF
:1048500005EB92421CB9214D554305600BE01D4DFF
:104860006D6805F400351DB11C4D5543056002E02F
:10487000194D5543056002E0174D056000BF00BFAC
:10488000144D6D6805F0F0010909154D6B5C056864
:10489000DD4045600F4D6D6805F4E061090A104D7B
:1048A0006B5C4568DD4085600A4D6D6805F46051BC
:1048B000C90A0B4D6B5C4568DD40C560054D6D68F0
:1048C00005F44041890B074D6B5CC568B5FBF3F5FA
:1048D000056130BD0010024000127A0000093D0061
:1048E0001400002024000020704710B500F002F8EA
:1048F00010BD00000CB50020019000903348006806
:1049000040F480303149086000BF3048006800F44E
:10491000003000900198401C0190009818B901984F
:10492000B0F5A06FF1D12948006800F4003010B153
:104930000120009001E0002000900098012843D160
:104940002348006840F010002149086008460068CC
:1049500020F0030008600846006840F0020008608C
:104960001A48406819494860084640684860084647
:10497000406840F4806048600846406820F47C103D
:1049800048600846406840F4E810486008460068FF
:1049900040F08070086000BF0C48006800F00070B4
:1049A0000028F9D00948406820F003000749486012
:1049B0000846406840F00200486000BF0348406875
:1049C00000F00C000828F9D10CBD000000100240D6
:1049D000002002402DE9F04104460F4625462846B6
:1049E00000F04CFD0646314602A0FEF72BFC0120EC
:1049F000BDE8F081415420434D44203D2564200A08
:104A00000000000070B504460E46254606A1284663
:104A100000F010F828B10649486800F0E1FD0120D7
:104A200070BD0020FCE7000068656C700D0A000096
:104A3000F456000870B502460B4615461C46002188
:104A40000EE0605C28B1685C665CB04206D0002075
:104A500070BD09B10120FBE70020F9E7481CC1B295
:104A6000FF29EEDB0020F3E701460B4A12684FF402
:104A70007A73B2FBF3F202FB01F01C2801D2002092
:104A800004E0A0F11C020623B2FBF3F000BF021EFB
:104A9000A0F10100FBD1704700000020704700002A
:104AA00010B51248006840F001001049086008463F
:104AB00040680F4908400D494860084600680D49A4
:104AC00008400A4908600846006820F48020086011
:104AD0000846406820F4FE0048604FF41F008860DC
:104AE000FFF703FF04480549086010BD00100240AD
:104AF0000000FFF8FFFFF6FE0030000808ED00E0C0
:104B000010B586B0044601210420FFF773FE012191
:104B10008803FFF76FFE4FF40070ADF81400182003
:104B20008DF8170003208DF8160005A92248FFF71D
:104B300071FD4FF48060ADF8140048208DF8170027
:104B400005A91D48FFF766FD01940020ADF8080097
:104B5000ADF80A00ADF80C00ADF810000C20ADF86F
:104B60000E000198019000208DF801000D208DF8B5
:104B7000020025208DF8000001208DF8030000219F
:104B80000E4800F023FB01A90C4800F051FB012264
:104B900040F22551094800F025FB012240F2244152
:104BA000064800F01FFB6846FFF7EAFD01210348B5
:104BB00000F00CFB06B010BD0008014000380140B9
:104BC00070B505460C461CB9402C01DD002070BDB7
:104BD0002146284600F00AFA60B10748008800F034
:104BE000800028B90448008840F08000024908800D
:104BF0000120ECE70020EAE70C38014001461E489E
:104C00000088402835DA72B61C480088401C1B4AD0
:104C100010801B481B4A128881541A4A1288521C61
:104C200092B2184B1A801046D21700EB9262921182
:104C3000A0EB82121A8010480088401C0E4A108097
:104C40000E48008820B10D480088401E0B4A108095
:104C50000A48008800B962B60B48008800F080005E
:104C600028B90948008840F08000074A10800120D8
:104C700070470020FCE70000F00000202800002022
:104C800044020020F20000200C3801402DE9F047DA
:104C900088B0824643E1A448008800B940E1A248B8
:104CA0000688022E08DBB01EA049085C0D2803D13F
:104CB000701E085C0A2803D000209B4908802FE161
:104CC0009A480290019603AA01A902A8FFF762FC84
:104CD00003A997A0FEF7B6FA022E01D10027AAE099
:104CE0009DF80C0018B900208F49088018E193A1A5
:104CF00003A8FFF79FFE08B101279CE091A103A83C
:104D0000FFF798FE38B1002790A000F069FCFA2068
:104D1000FFF7AAFE8FE094A103A8FFF78BFE0028FF
:104D20006FD0029800782B2817D16A4690A102987C
:104D3000401CFEF7E7FB012842D1009810283FDA1B
:104D40000120009988408B490988084389490880D7
:104D50001B21894800F012FC32E0029800782D28CF
:104D600017D16A4682A10298401CFEF7CBFB0128AE
:104D700026D10098102823DA0120009988407D4927
:104D8000098881437B4801801B217B4800F0F6FBAA
:104D900016E0029800783D2812D16A4674A1029864
:104DA000401CFEF7AFFB01280AD10098B0F5803F08
:104DB00006DA7049009808801B216F4800F0DEFB7E
:104DC0003F216E4800F0DAFB102420E0601E012134
:104DD00001FA00F067490988084018B168A000F09E
:104DE000FFFB02E067A000F0FBFBE11704EB917111
:104DF0008910A4EB8101012904D163A000F0F0FB2C
:104E000003E017E061A000F0EBFB601E84B2002C11
:104E1000DCD1584801885EA0FEF714FA5548008896
:104E200018B160A000F0DCFB02E062A000F0D8FB4B
:104E3000002700E0FF2717B94FF001082BE04FF0E3
:104E40000008604D25E0286800B923E0012F05D156
:104E50002968486800F0C4FBB84615E0FF2F13D15D
:104E60002868016803A8FFF7E5FD68B12868806835
:104E700050B12868BDF804108268029890478046B7
:104E8000B8F1000F00D005E0686808B16D6800E077
:104E900000E0D8E700BF002023490880B8F1000FE8
:104EA0003AD1BDF80400022803DBBDF80400801EDF
:104EB00000E0002081464A4603A943A0FEF7C2F95C
:104EC00000241CE00298005D202805DB0298005DAC
:104ED0007E2801DC202C10DB2E222046611C8CB2A7
:104EE00002990A542046611C8CB202990A54204649
:104EF000611C8CB202990A5403E0601C84B24C45D8
:104F0000E0DB00BF002002990855029800F068FB22
:104F100035A000F065FB00BF00F024FB00BFBAE63F
:104F200000BF08B0BDE8F087640000202401002025
:104F3000636D643D2573200A0000000068656C7095
:104F4000000000007265626F6F7400002D3E4D43DB
:104F500055205265626F6F7420457865637574697A
:104F60006F6E210D0A000000646562756700000025
:104F700025780000AC000020D456000894560008A4
:104F80003100000030000000202020002000000040
:104F90000D0A2020202056616C3A203078253034CC
:104FA0005800000009094465627567204F4E0D0ADC
:104FB0000000000009094465627567204F46460DF0
:104FC0000A000000B80000200D0A41543A20436D49
:104FD000642022257322204572726F7221095B259D
:104FE000645D3D2200000000220D0A0030B503463A
:104FF0000A461C4800881044402831DC72B61A4822
:105000000088401C184C2080002119E0585C174C87
:10501000174D2D886055164C2488641CA4B2144D7D
:105020002C802046E41700EB9464A411A0EB8414B8
:105030002C800C480088401C0A4C2080481C81B2FF
:105040009142E3DB0848008820B107480088401EF1
:10505000054C20800448008800B962B6012030BDAC
:105060000020FCE7F000002028000020440200207F
:10507000F200002001461248008800281DDD11487A
:10508000114A1288805C08700F4A1288501CC2179F
:1050900000EB92629211A0EB82120B4B1A8008482F
:1050A0000088401E80B2064A108020B90020074ABE
:1050B00010801A461080012070470020FCE7000095
:1050C000F000002044020020F4000020F200002044
:1050D00038B53A48058839480C30008800F020007F
:1050E00060B305F0200048B33448001D0088C4B206
:1050F00033480088402807DA31490888411C304A83
:10510000118030490C5419E02D490888411C2C4A63
:1051100011802C490C54104600881146088008461E
:10512000008840B12848406928B1274842690846AC
:105130000188244890470020214908801F480C30EE
:10514000008800F01000B0B105F0100098B11B48C5
:1051500000881A48001D00881948008840B11A4884
:10516000406928B118484269154801881548904798
:1051700000201349088011480C30008800F080009E
:10518000D0B105F08000B8B16846FFF773FF28B1D1
:105190009DF800000949091D08800DE007480C3002
:1051A000008820F0800005490C310880064880699D
:1051B00010B105498869804738BD000000380140BA
:1051C000F600002085020020F800002021B182892D
:1051D00042F40052828104E082894DF6FF731A4046
:1051E00082817047F0B50346002400260025002088
:1051F00040F66A17B94200D100BF1846C1F3421405
:1052000001F01F06012707FA06F5012C01D10C3029
:1052100004E0022C01D1103000E014301AB107680C
:105220002F43076002E00768AF430760F0BD00004E
:105230002DE9F04786B005460E460024A24600BF81
:10524000A1460027B08900B100BF2F462C8A4CF63A
:10525000FF700440F08804432C82AC894EF6F310B2
:105260000440B08831890843718908430443AC8104
:10527000AC8A4FF6FF400440B0890443AC8201A8D9
:10528000FFF7C8FA1F48874202D1DDF810A001E0FD
:10529000DDF80CA0A88900F4004040B10AEBCA0078
:1052A00000EB0A1031684900B0FBF1F807E00AEBA7
:1052B000CA0000EB0A1031688900B0FBF1F86420E5
:1052C000B8FBF0F004012009642101FB1089A889D2
:1052D00000F4004040B1322000EBC900B0FBF1F017
:1052E00000F00700044308E0322000EB09106421BD
:1052F000B0FBF1F000F00F0004432C8106B0BDE8D4
:10530000F08700000038014000BFFEE730380A286F
:1053100001D20120704700207047000070B506469A
:105320000D4601203E4908703E48006838B12946C4
:1053300030463C4A1268904708B1012070BD3A4897
:1053400000884FF6FE7108403749088037480088CA
:1053500018B100203649088025E0354800882844E7
:10536000B0F5907F1CDC3348007840B130780828D5
:1053700005D0314800682946C2683046904700246D
:1053800006E0305D2A49098821442C4A5054641CA7
:10539000AC42F6DB2648008828442549088002E014
:1053A00000202349088022480088022814DB204876
:1053B0000088801E2149085C0D280DD11C480088FA
:1053C000401E085C0A2807D1194800881749088040
:1053D00000201749088020E01548008800281CDDBF
:1053E00013480088401E1549085C082815D110484C
:1053F0000088022803DA00200D4908800DE00C48DF
:105400000088801E0A4908800A48007828B10A48A6
:1054100000680321C2680AA0904701208EE70000BF
:1054200062000020B0000020AC00002064000020DA
:10543000C000002061000020B400002024010020F2
:10544000082008007047000070B504460D46094862
:10545000007808B1204670BD02E00120FFF704FB90
:10546000E0B2054A1268116988470028F5D0204645
:10547000F1E7000060000020B40000202DE9F041B9
:1054800005462E46FF27002409E0084850F824105E
:105490003046FFF7CFFA08B1E7B202E0641C282CCF
:1054A000F3D300BF3846BDE8F08100003000002093
:1054B0000146002070477047FFF7F2FA0F498868ED
:1054C00080470F49886880474FF4E13000F02EF89C
:1054D0000C48FFF733F80CA0FDF7B4FE0DE00A20EE
:1054E000FFF741F80F480068401C0E4908600E485D
:1054F000008810B10020FFF7C9FBF0E7D8000020BA
:10550000C40000205800002078635F7368656C6CED
:1055100020496E69742073756363657373656421D4
:105520000D0A00002C0000206400002010B5044685
:1055300008480068084908600846006881682046F5
:1055400088470648044909684861054802490968CE
:10555000886110BDF0560008B40000201D530008FB
:105560004554000810B502A000F03AF810BD000044
:105570000D0A41543A4F4B210D0A000070B5064602
:105580000C461548007800B170BD14480068C0880A
:10559000A04213DA35460BE002E00120FFF764FA7F
:1055A00028780E4A1268116988470028F5D06D1CCA
:1055B000201EA4F101018CB2EED10BE002E001202B
:1055C000FFF752FA054800682146C2683046904706
:1055D0000028F4D000BFD7E760000020B40000200E
:1055E00070B5064600251948007800B170BD3446F4
:1055F00001E0681C85B214F8011B0029F9D1144898
:105600000068C088A84213DA34460BE002E00120AB
:10561000FFF72AFA20780E4A126811698847002895
:10562000F5D0641C281EA5F101018DB2EED10BE06E
:1056300002E00120FFF718FA054800682946C26811
:10564000304690470028F4D000BFCFE7600000202C
:10565000B40000207047000010B500290AD0087877
:10566000002807D005487844FEF7F2FE002801D054
:10567000002010BD0248784410BD0000E201000087
:10568000DA010000B0570008B4570008D5490008F7
:10569000000000002D3E20204442473A205B204677
:1056A000204520442043202020422041203920381A
:1056B000202020372036203520342020203320326F
:1056C00020312030205D0D0A2020202042494E3A12
:1056D000202020002D3E2020446562756720636FE6
:1056E0006E6669672073756363656564210D0A00E2
:1056F000F800002014580008CC570008054A00089C
:105700000000000030313233343536373839414209
:105710004344454640305800303132333435363713
:1057200038396162636465664030780004000008BF
:10573000000000000000000200010000103A747434
:10574000003A7474003A74740000000041542B4510
:1057500043474F464600000041542B48505F4F4698
:105760004600000041542B555046000041542B4543
:1057700043474F4E0000000041542B48505F4F4EAE
:105780000000000041542B425000000041542B48BF
:105790005645520041542B535645520041542B4814
:1057A000595645520000000041542B485200000059
:1057B000636D6400415420434D44534D6F72652026
:1057C000696E666F726D6174696F6E005B4C454403
:1057D00020636F6E746F726C735D0D0A206C65646C
:1057E0002068656C7009092D2068656C702E0D0AA3
:1057F000206C65642073686F7709092D20526561FC
:1058000064204C65642073657474696E672E0D0A9C
:10581000000000006C65640069326300696F00007D
:10582000747479300000000058590008000000200E
:10583000240100006C3100087C5A0008240100207B
:105840000409000088310008100100004300000036
:10585000F8FFFFFF00404040404040404040414191
:105860004141414040404040404040404040404035
:1058700040404040400502020202020202020202CF
:1058800002020202022020202020202020202002CC
:10589000020202020202909090909090101010105C
:1058A00010101010101010101010101010101010F8
:1058B000020202020202888888888888080808088C
:1058C0000808080808080808080808080808080858
:1058D0000202020240000000000000000000000080
:1058E00000000000000000000000000000000000B8
:1058F00000000000000000000000000000000000A8
:105900000000000000000000000000000000000097
:105910000000000000000000000000000000000087
:105920000000000000000000000000000000000077
:105930000000000000000000000000000000000067
:105940000000000000000000000000000000000057
:10595000000000000000000000A24A040000000057
:10596000000000000102030406070809000000000F
:1059700001020304010203040607080902040608E1
:1059800000000000000000008C5700089457000839
:105990009C5700087857000858570008A857000877
:1059A000845700086C5700084C57000864570008DB
:1059B000845600080000000000000000000068623B
:1059C0007000007E000000000000000000000000E9
:1059D00000000000000000000000000000000000C7
:1059E00000000000000000000000000000000000B7
:1059F00000000000000000000000000000000000A7
:105A00000000000000000000000000000000000096
:105A1000F4560008000000000000000018580008BC
:105A20000100000033470008354700083B470008E5
:105A30001C5800080000000041470008B754000847
:105A4000B154000855560008000000000000000096
:105A50002058000840004000014B0008C14B0008DE
:105A6000FD4B0008000000000000000000000000E6
:0C5A70000000000000000000000000002A
:04000005080031318D
:00000001FF
